{
  "contractName": "Auction",
  "abi": [
    {
      "constant": true,
      "inputs": [
        {
          "name": "",
          "type": "address"
        }
      ],
      "name": "pendingReturns",
      "outputs": [
        {
          "name": "",
          "type": "uint256"
        }
      ],
      "payable": false,
      "stateMutability": "view",
      "type": "function"
    },
    {
      "constant": true,
      "inputs": [
        {
          "name": "",
          "type": "uint256"
        }
      ],
      "name": "auctionIndex",
      "outputs": [
        {
          "name": "",
          "type": "uint256"
        }
      ],
      "payable": false,
      "stateMutability": "view",
      "type": "function"
    },
    {
      "constant": true,
      "inputs": [
        {
          "name": "",
          "type": "uint256"
        }
      ],
      "name": "auctions",
      "outputs": [
        {
          "name": "tokenId",
          "type": "uint256"
        },
        {
          "name": "highestBidder",
          "type": "address"
        },
        {
          "name": "highestBid",
          "type": "uint256"
        },
        {
          "name": "ended",
          "type": "bool"
        },
        {
          "name": "auctionEnd",
          "type": "uint256"
        }
      ],
      "payable": false,
      "stateMutability": "view",
      "type": "function"
    },
    {
      "constant": true,
      "inputs": [],
      "name": "owner",
      "outputs": [
        {
          "name": "",
          "type": "address"
        }
      ],
      "payable": false,
      "stateMutability": "view",
      "type": "function"
    },
    {
      "inputs": [],
      "payable": false,
      "stateMutability": "nonpayable",
      "type": "constructor"
    },
    {
      "payable": true,
      "stateMutability": "payable",
      "type": "fallback"
    },
    {
      "anonymous": false,
      "inputs": [
        {
          "indexed": false,
          "name": "_token",
          "type": "uint256"
        },
        {
          "indexed": false,
          "name": "bidder",
          "type": "address"
        },
        {
          "indexed": false,
          "name": "amount",
          "type": "uint256"
        }
      ],
      "name": "HighestBidIncreased",
      "type": "event"
    },
    {
      "anonymous": false,
      "inputs": [
        {
          "indexed": false,
          "name": "_token",
          "type": "uint256"
        },
        {
          "indexed": false,
          "name": "winner",
          "type": "address"
        },
        {
          "indexed": false,
          "name": "amount",
          "type": "uint256"
        }
      ],
      "name": "AuctionEnded",
      "type": "event"
    },
    {
      "constant": false,
      "inputs": [
        {
          "name": "_biddingTime",
          "type": "uint256"
        },
        {
          "name": "_token",
          "type": "uint256"
        }
      ],
      "name": "setAuction",
      "outputs": [],
      "payable": false,
      "stateMutability": "nonpayable",
      "type": "function"
    },
    {
      "constant": false,
      "inputs": [
        {
          "name": "_token",
          "type": "uint256"
        }
      ],
      "name": "bid",
      "outputs": [],
      "payable": true,
      "stateMutability": "payable",
      "type": "function"
    },
    {
      "constant": false,
      "inputs": [],
      "name": "withdraw",
      "outputs": [
        {
          "name": "",
          "type": "bool"
        }
      ],
      "payable": false,
      "stateMutability": "nonpayable",
      "type": "function"
    },
    {
      "constant": false,
      "inputs": [
        {
          "name": "_token",
          "type": "uint256"
        }
      ],
      "name": "endAuction",
      "outputs": [],
      "payable": false,
      "stateMutability": "nonpayable",
      "type": "function"
    },
    {
      "constant": true,
      "inputs": [
        {
          "name": "_token",
          "type": "uint256"
        }
      ],
      "name": "getHighestBid",
      "outputs": [
        {
          "name": "",
          "type": "uint256"
        }
      ],
      "payable": false,
      "stateMutability": "view",
      "type": "function"
    },
    {
      "constant": true,
      "inputs": [
        {
          "name": "_token",
          "type": "uint256"
        }
      ],
      "name": "getHighestBidder",
      "outputs": [
        {
          "name": "",
          "type": "address"
        }
      ],
      "payable": false,
      "stateMutability": "view",
      "type": "function"
    },
    {
      "constant": true,
      "inputs": [
        {
          "name": "_token",
          "type": "uint256"
        }
      ],
      "name": "getAuctionEnd",
      "outputs": [
        {
          "name": "",
          "type": "uint256"
        }
      ],
      "payable": false,
      "stateMutability": "view",
      "type": "function"
    },
    {
      "constant": true,
      "inputs": [],
      "name": "getNumberofAuctions",
      "outputs": [
        {
          "name": "",
          "type": "uint256"
        }
      ],
      "payable": false,
      "stateMutability": "view",
      "type": "function"
    },
    {
      "constant": false,
      "inputs": [
        {
          "name": "_token",
          "type": "address"
        }
      ],
      "name": "setToken",
      "outputs": [],
      "payable": false,
      "stateMutability": "nonpayable",
      "type": "function"
    },
    {
      "constant": false,
      "inputs": [
        {
          "name": "_owner",
          "type": "address"
        }
      ],
      "name": "setOwner",
      "outputs": [],
      "payable": false,
      "stateMutability": "nonpayable",
      "type": "function"
    },
    {
      "constant": true,
      "inputs": [
        {
          "name": "",
          "type": "address"
        },
        {
          "name": "",
          "type": "uint256"
        },
        {
          "name": "",
          "type": "bytes"
        }
      ],
      "name": "onERC721Received",
      "outputs": [
        {
          "name": "",
          "type": "bytes4"
        }
      ],
      "payable": false,
      "stateMutability": "view",
      "type": "function"
    }
  ],
  "bytecode": "0x608060405234801561001057600080fd5b5060008054600160a060020a03338116600160a060020a0319928316178084556040805160a081018252858152918316602083019081529082018581526060830186815260808401878152600280546001810182559852935160059097027f405787fa12a823e0f2b7631cc41b3ba8828b3321ca811111fa75cd3aa3bb5ace81019790975591517f405787fa12a823e0f2b7631cc41b3ba8828b3321ca811111fa75cd3aa3bb5acf870180549190951695169490941790925591517f405787fa12a823e0f2b7631cc41b3ba8828b3321ca811111fa75cd3aa3bb5ad0840155517f405787fa12a823e0f2b7631cc41b3ba8828b3321ca811111fa75cd3aa3bb5ad18301805491151560ff19909216919091179055517f405787fa12a823e0f2b7631cc41b3ba8828b3321ca811111fa75cd3aa3bb5ad290910155610efa806101596000396000f3006080604052600436106100da5763ffffffff7c010000000000000000000000000000000000000000000000000000000060003504166313af403581146100e7578063144fa6d71461010857806326b387bb146101295780633ccfd60b1461015c578063454a2ab3146101855780634b3e4f0d146101905780634fd829f2146101ab578063571a26a0146101c35780638da5cb5b146102105780638f28864414610241578063ab8d538214610259578063b9a2de3a1461026e578063c750cb7914610286578063eda892791461029e578063f0b9e5ba146102b6575b34156100e557600080fd5b005b3480156100f357600080fd5b506100e5600160a060020a036004351661031c565b34801561011457600080fd5b506100e5600160a060020a0360043516610359565b34801561013557600080fd5b5061014a600160a060020a0360043516610396565b60408051918252519081900360200190f35b34801561016857600080fd5b506101716103a8565b604080519115158252519081900360200190f35b6100e560043561042d565b34801561019c57600080fd5b506100e560043560243561060d565b3480156101b757600080fd5b5061014a6004356107e9565b3480156101cf57600080fd5b506101db6004356107fb565b60408051958652600160a060020a03909416602086015284840192909252151560608401526080830152519081900360a00190f35b34801561021c57600080fd5b5061022561084a565b60408051600160a060020a039092168252519081900360200190f35b34801561024d57600080fd5b5061014a600435610859565b34801561026557600080fd5b5061014a6108e5565b34801561027a57600080fd5b506100e56004356108ec565b34801561029257600080fd5b50610225600435610b70565b3480156102aa57600080fd5b5061014a600435610bfa565b3480156102c257600080fd5b506102e760048035600160a060020a0316906024803591604435918201910135610c86565b604080517fffffffff000000000000000000000000000000000000000000000000000000009092168252519081900360200190f35b60005433600160a060020a0390811691161461033757600080fd5b60008054600160a060020a031916600160a060020a0392909216919091179055565b60005433600160a060020a0390811691161461037457600080fd5b60018054600160a060020a031916600160a060020a0392909216919091179055565b60046020526000908152604090205481565b600160a060020a0333166000908152600460205260408120548181111561042457600160a060020a0333166000818152600460205260408082208290555183156108fc0291849190818181858888f19350505050151561042457600160a060020a03331660009081526004602052604081208290559150610429565b600191505b5090565b610435610e1d565b60008281526003602052604090205460028054909190811061045357fe5b60009182526020918290206040805160a0810182526005909302909101805483526001810154600160a060020a031693830193909352600283015490820152600382015460ff1615156060820152600490910154608082018190529091504211156104bd57600080fd5b604081015134116104cd57600080fd5b60408101511561050257604080820151602080840151600160a060020a03166000908152600490915291909120805490910190555b60a06040519081016040528083815260200133600160a060020a0316815260200134815260200160001515815260200182608001518152506002600360008581526020019081526020016000205481548110151561055c57fe5b600091825260209182902083516005929092020190815582820151600182018054600160a060020a031916600160a060020a03928316179055604080850151600284015560608086015160038501805460ff1916911515919091179055608090950151600490930192909255815186815233909116928101929092523482820152517fda0a18da71d8ebd145966339a728fc0d8ccc07c22870d561890d823c515dda6b929181900390910190a15050565b60005433600160a060020a0390811691161461062857600080fd5b600280546000838152600360209081526040808320849055805160a0810182528681528354600160a060020a0390811693820193845281830185815260608301868152428b01608085019081526001808a018b5599885293517f405787fa12a823e0f2b7631cc41b3ba8828b3321ca811111fa75cd3aa3bb5ace60059099029889015594517f405787fa12a823e0f2b7631cc41b3ba8828b3321ca811111fa75cd3aa3bb5acf88018054600160a060020a031916918416919091179055517f405787fa12a823e0f2b7631cc41b3ba8828b3321ca811111fa75cd3aa3bb5ad087015592517f405787fa12a823e0f2b7631cc41b3ba8828b3321ca811111fa75cd3aa3bb5ad18601805460ff1916911515919091179055517f405787fa12a823e0f2b7631cc41b3ba8828b3321ca811111fa75cd3aa3bb5ad290940193909355925482517f23b872dd000000000000000000000000000000000000000000000000000000008152338516600482015230851660248201526044810186905292519316926323b872dd92606480820193929182900301818387803b1580156107cd57600080fd5b505af11580156107e1573d6000803e3d6000fd5b505050505050565b60036020526000908152604090205481565b600280548290811061080957fe5b600091825260209091206005909102018054600182015460028301546003840154600490940154929450600160a060020a0390911692909160ff9091169085565b600054600160a060020a031681565b6000610863610e1d565b60008381526003602052604090205460028054909190811061088157fe5b60009182526020918290206040805160a081018252600593909302909101805483526001810154600160a060020a0316938301939093526002830154908201819052600383015460ff16151560608301526004909201546080909101529392505050565b6002545b90565b6108f4610e1d565b60008281526003602052604090205460028054909190811061091257fe5b60009182526020918290206040805160a0810182526005909302909101805483526001810154600160a060020a031693830193909352600283015490820152600382015460ff161515606082015260049091015460808201819052909150421161097b57600080fd5b60608101511561098a57600080fd5b6040805160a081018252838152602083810151600160a060020a031681830152838301518284015260016060830152608080850151908301526000858152600390915291909120546002805490919081106109e157fe5b600091825260209182902083516005929092020190815590820151600182018054600160a060020a031916600160a060020a0390921691909117905560408201516002820155606082015160038201805460ff1916911515919091179055608090910151600490910155610a5482610caf565b7fd2aa34a4fdbbc6dff6a3e56f46e0f3ae2a31d7785ff3487aa5c95c642acea50182826020015183604001516040518084815260200183600160a060020a0316600160a060020a03168152602001828152602001935050505060405180910390a16001546020820151604080517f23b872dd000000000000000000000000000000000000000000000000000000008152600160a060020a033081166004830152928316602482015260448101869052905191909216916323b872dd91606480830192600092919082900301818387803b158015610b3057600080fd5b505af1158015610b44573d6000803e3d6000fd5b5050505060409081015160008054600160a060020a031681526004602052919091208054909101905550565b6000610b7a610e1d565b600083815260036020526040902054600280549091908110610b9857fe5b60009182526020918290206040805160a081018252600593909302909101805483526001810154600160a060020a0316938301849052600281015491830191909152600381015460ff1615156060830152600401546080909101529392505050565b6000610c04610e1d565b600083815260036020526040902054600280549091908110610c2257fe5b60009182526020918290206040805160a081018252600593909302909101805483526001810154600160a060020a031693830193909352600283015490820152600382015460ff161515606082015260049091015460809091018190529392505050565b7ff0b9e5ba00000000000000000000000000000000000000000000000000000000949350505050565b600080610cba610e1d565b600084815260036020526040902054600254909350610ce090600163ffffffff610e0b16565b60008181526003602052604090205460028054929450918110610cff57fe5b60009182526020918290206040805160a0810182526005909302909101805483526001810154600160a060020a03169383019390935260028084015491830191909152600383015460ff16151560608301526004909201546080820152815490925082919085908110610d6e57fe5b600091825260209182902083516005929092020190815590820151600182018054600160a060020a031916600160a060020a039092169190911790556040820151600280830191909155606083015160038301805460ff1916911515919091179055608090920151600490910155805490610ded906000198301610e58565b50516000908152600360205260408082209390935592835250812055565b600082821115610e1757fe5b50900390565b60a060405190810160405280600081526020016000600160a060020a0316815260200160008152602001600015158152602001600081525090565b815481835581811115610e8457600502816005028360005260206000209182019101610e849190610e89565b505050565b6108e991905b80821115610429576000808255600182018054600160a060020a03191690556002820181905560038201805460ff191690556004820155600501610e8f5600a165627a7a723058207db80530af78450e4b1969a2600d129b4376f6aa23bb6bfe3af38916ce50db340029",
  "source": "pragma solidity ^0.4.18;\n\nimport \"./PhotoCore.sol\";\n import \"./library/SafeMath.sol\";\n import \"./library/ERC721Receiver.sol\";\nimport \"./library/AddressUtils.sol\";\n\ncontract Auction {\n    using SafeMath for uint256;\n    /***VARIABLES***/\n    address public owner; //owner of the contracts\n    PhotoCore token; //The PhotoCore contract for linking to the Photocoin token\n    // Equals to `bytes4(keccak256(\"onERC721Received(address,uint256,bytes)\"))`\n    // which can be also obtained as `ERC721Receiver(0).onERC721Received.selector`\n    bytes4 constant ERC721_RECEIVED = 0xf0b9e5ba;\n\n    /// @dev The main Photo struct\n    struct Details {\n        uint tokenId;\n        address highestBidder;//Name of photograph\n        uint highestBid;//Name of photographer\n        bool ended;\n        uint auctionEnd; //Hash of photo\n     }\n\n    /***STORAGE***/\n    Details[] public auctions;//an array of all auctions\n    mapping(uint => uint) public auctionIndex; //Gets position of a token in the auction array\n    mapping(address => uint) public pendingReturns;//maps addresses to the amount they can withdraw form the contract\n\n    /***EVENTS***/\n    //event that indicates that the highest bid for a token has increased\n    event HighestBidIncreased(uint256 _token, address bidder, uint amount);\n    //event that indicates that an auction for a token has ended\n    event AuctionEnded(uint256 _token, address winner, uint amount);\n\n    /***MODIFIERS***/\n    /// @dev Access modifier for Owner functionality\n    modifier onlyOwner() {\n        require(msg.sender == owner);\n        _;\n    }\n\n    /***FUNCTIONS***/\n    /**\n    *@dev Constructor function to set the owner and initialize the array\n    */\n    function Auction () public {\n        owner = msg.sender;\n        auctions.push(Details({\n            tokenId:0,\n            highestBidder: owner,\n            highestBid: 0,\n            ended: false,\n            auctionEnd: 0\n        }));\n    }\n    \n    /*\n    *@dev The fallback function to prevent money from being sent to the contract\n    */\n    function()  payable public{\n        require(msg.value == 0);\n    }\n\n    /**\n    *@dev allows the owner to create an auction for a token\n    *@param _biddingTime is a uint that represeents how long the auction lasts (UNIX time, 86400 is one day)\n    *@param _token the unique tokenId\n    */\n    function setAuction(uint _biddingTime,uint256 _token) public onlyOwner() {\n        auctionIndex[_token] = auctions.length;\n        auctions.push(Details({\n            tokenId: _token,\n            highestBidder: owner,\n            highestBid: 0,\n            ended: false,\n            auctionEnd: now + _biddingTime\n            }));\n        token.transferFrom(msg.sender,address(this),_token);\n    }\n\n    /**\n    *@dev allows a party to place a bid for a certain token\n    *@param _token the unique tokenId\n    */\n    function bid(uint256 _token) public payable {\n\n        Details memory _auction = auctions[auctionIndex[_token]];\n        require(now <= _auction.auctionEnd);\n        require(msg.value > _auction.highestBid);\n        if (_auction.highestBid != 0) {\n            pendingReturns[_auction.highestBidder] += _auction.highestBid;\n        }\n        auctions[auctionIndex[_token]] = Details({\n            tokenId: _token,\n            highestBidder: msg.sender,\n            highestBid: msg.value,\n            ended: false,\n            auctionEnd: _auction.auctionEnd\n            });\n        HighestBidIncreased(_token,msg.sender, msg.value);\n    }\n\n    /**\n    *@dev allows any party to withdraw the funds owed to them in the contract\n    */\n    function withdraw() public returns (bool) {\n        uint amount = pendingReturns[msg.sender];\n        if (amount > 0) {\n            pendingReturns[msg.sender] = 0;\n            if (!msg.sender.send(amount)) {\n                pendingReturns[msg.sender] = amount;\n                return false;\n            }\n        }\n        return true;\n    }\n\n    /**\n    *@dev allows anyone to end the auction once the end date is reached\n    *@param _token the unique tokenId\n    */\n    function endAuction(uint _token) public {\n        Details memory _auction = auctions[auctionIndex[_token]];\n        require(now > _auction.auctionEnd);\n        require(_auction.ended == false);\n        auctions[auctionIndex[_token]] = Details({\n            tokenId: _token,\n            highestBidder: _auction.highestBidder,\n            highestBid: _auction.highestBid,\n            ended: true,\n            auctionEnd: _auction.auctionEnd\n        });\n        unLister(_token);\n        AuctionEnded(_token,_auction.highestBidder,_auction.highestBid);\n        token.transferFrom(address(this),_auction.highestBidder, _token);\n        pendingReturns[owner] += _auction.highestBid;\n    }\n\n    /**\n    *@dev allows parties to query the current highest bid in a token auction\n    *@param _token the unique tokenId\n    */\n    function getHighestBid(uint _token) public constant returns(uint){\n        Details memory _auction = auctions[auctionIndex[_token]];\n        return _auction.highestBid;\n    }\n\n    /**\n    *@dev allows parties to query the current highest bidder in a token auction\n    *@param _token the unique tokenId\n    */\n    function getHighestBidder(uint _token) public constant returns(address){\n        Details memory _auction = auctions[auctionIndex[_token]];\n        return _auction.highestBidder;\n    }\n\n    /**\n    *@dev allows parties to query the end time of a token auction\n    *@param _token the unique tokenId\n    */\n    function getAuctionEnd(uint _token) public constant returns(uint){\n        Details memory _auction = auctions[auctionIndex[_token]];\n        return _auction.auctionEnd;\n    }\n    /**\n    *@dev allows parties to query how many auctions are ongoing\n    *@param _token the unique tokenId\n    */\n    function getNumberofAuctions() public constant returns(uint){\n        return auctions.length;\n    }\n    /*\n    *@dev allows the owner to set the address of the PhotoCoin token\n    *@param _token address of the PhotoCoin token (PhotoCore.sol)\n    */\n    function setToken(address _token) public onlyOwner() {\n        token = PhotoCore(_token);\n    }\n    /*\n    *@dev allows the owner to change who the owner is\n    *@param _owner is the address of the new owner\n    */\n    function setOwner(address _owner) public onlyOwner() {\n        owner = _owner;\n    }\n\n    function unLister(uint256 _tokenId) internal{\n        uint256 tokenIndex = auctionIndex[_tokenId];\n        uint256 lastTokenIndex = auctions.length.sub(1);\n        Details memory lastToken = auctions[auctionIndex[lastTokenIndex]];\n        auctions[tokenIndex] = lastToken;\n        auctions.length--;\n        auctionIndex[lastToken.tokenId] = tokenIndex;\n        auctionIndex[_tokenId] = 0;\n    }\n            /**\n       * @notice Handle the receipt of an NFT\n       * @dev The ERC721 smart contract calls this function on the recipient\n       *  after a `safetransfer`. This function MAY throw to revert and reject the\n       *  transfer. This function MUST use 50,000 gas or less. Return of other\n       *  than the magic value MUST result in the transaction being reverted.\n       *  Note: the contract address is always the message sender.\n       * _from The sending address\n       * _tokenId The NFT identifier which is being transfered\n       * _data Additional data with no specified format\n       * @return `bytes4(keccak256(\"onERC721Received(address,uint256,bytes)\"))`\n       */\n      function onERC721Received(address, uint256, bytes) external view returns(bytes4) {\n        return ERC721_RECEIVED;\n      }\n}",
  "sourcePath": "/Volumes/WORKSPACE/Development/Pavle/Photocoin/contracts/Auction.sol",
  "compiler": {
    "name": "solc",
    "version": "0.4.23+commit.124ca40d.Emscripten.clang"
  },
  "schemaVersion": "2.0.0",
  "updatedAt": "2018-04-24T07:53:05.321Z"
}