{
  "contractName": "ERC721",
  "abi": [
    {
      "constant": true,
      "inputs": [],
      "name": "totalTokens",
      "outputs": [
        {
          "name": "",
          "type": "uint256"
        }
      ],
      "payable": false,
      "stateMutability": "view",
      "type": "function"
    },
    {
      "inputs": [],
      "payable": false,
      "stateMutability": "nonpayable",
      "type": "constructor"
    },
    {
      "anonymous": false,
      "inputs": [
        {
          "indexed": true,
          "name": "_from",
          "type": "address"
        },
        {
          "indexed": true,
          "name": "_to",
          "type": "address"
        },
        {
          "indexed": false,
          "name": "_tokenId",
          "type": "uint256"
        }
      ],
      "name": "Transfer",
      "type": "event"
    },
    {
      "anonymous": false,
      "inputs": [
        {
          "indexed": true,
          "name": "_owner",
          "type": "address"
        },
        {
          "indexed": true,
          "name": "_operator",
          "type": "address"
        },
        {
          "indexed": false,
          "name": "_approved",
          "type": "bool"
        }
      ],
      "name": "ApprovalForAll",
      "type": "event"
    },
    {
      "anonymous": false,
      "inputs": [
        {
          "indexed": true,
          "name": "_owner",
          "type": "address"
        },
        {
          "indexed": true,
          "name": "_operator",
          "type": "address"
        },
        {
          "indexed": false,
          "name": "_tokenId",
          "type": "uint256"
        }
      ],
      "name": "Approval",
      "type": "event"
    },
    {
      "constant": true,
      "inputs": [
        {
          "name": "interfaceID",
          "type": "bytes4"
        }
      ],
      "name": "supportsInterface",
      "outputs": [
        {
          "name": "",
          "type": "bool"
        }
      ],
      "payable": false,
      "stateMutability": "view",
      "type": "function"
    },
    {
      "constant": false,
      "inputs": [
        {
          "name": "_from",
          "type": "address"
        },
        {
          "name": "_to",
          "type": "address"
        },
        {
          "name": "_tokenId",
          "type": "uint256"
        }
      ],
      "name": "transferFrom",
      "outputs": [],
      "payable": false,
      "stateMutability": "nonpayable",
      "type": "function"
    },
    {
      "constant": false,
      "inputs": [
        {
          "name": "_from",
          "type": "address"
        },
        {
          "name": "_to",
          "type": "address"
        },
        {
          "name": "_tokenId",
          "type": "uint256"
        },
        {
          "name": "_data",
          "type": "bytes"
        }
      ],
      "name": "transferFrom",
      "outputs": [],
      "payable": false,
      "stateMutability": "nonpayable",
      "type": "function"
    },
    {
      "constant": false,
      "inputs": [
        {
          "name": "_from",
          "type": "address"
        },
        {
          "name": "_to",
          "type": "address"
        },
        {
          "name": "_tokenId",
          "type": "uint256"
        },
        {
          "name": "_data",
          "type": "bytes"
        }
      ],
      "name": "safeTransferFrom",
      "outputs": [],
      "payable": false,
      "stateMutability": "nonpayable",
      "type": "function"
    },
    {
      "constant": false,
      "inputs": [
        {
          "name": "_from",
          "type": "address"
        },
        {
          "name": "_to",
          "type": "address"
        },
        {
          "name": "_tokenId",
          "type": "uint256"
        }
      ],
      "name": "safeTransferFrom",
      "outputs": [],
      "payable": false,
      "stateMutability": "nonpayable",
      "type": "function"
    },
    {
      "constant": false,
      "inputs": [
        {
          "name": "_operator",
          "type": "address"
        },
        {
          "name": "_approved",
          "type": "bool"
        }
      ],
      "name": "setApprovalForAll",
      "outputs": [],
      "payable": false,
      "stateMutability": "nonpayable",
      "type": "function"
    },
    {
      "constant": true,
      "inputs": [],
      "name": "totalSupply",
      "outputs": [
        {
          "name": "",
          "type": "uint256"
        }
      ],
      "payable": false,
      "stateMutability": "view",
      "type": "function"
    },
    {
      "constant": true,
      "inputs": [
        {
          "name": "_owner",
          "type": "address"
        }
      ],
      "name": "balanceOf",
      "outputs": [
        {
          "name": "",
          "type": "uint256"
        }
      ],
      "payable": false,
      "stateMutability": "view",
      "type": "function"
    },
    {
      "constant": true,
      "inputs": [
        {
          "name": "_owner",
          "type": "address"
        }
      ],
      "name": "tokensOf",
      "outputs": [
        {
          "name": "",
          "type": "uint256[]"
        }
      ],
      "payable": false,
      "stateMutability": "view",
      "type": "function"
    },
    {
      "constant": true,
      "inputs": [
        {
          "name": "_tokenId",
          "type": "uint256"
        }
      ],
      "name": "ownerOf",
      "outputs": [
        {
          "name": "",
          "type": "address"
        }
      ],
      "payable": false,
      "stateMutability": "view",
      "type": "function"
    },
    {
      "constant": true,
      "inputs": [
        {
          "name": "_tokenId",
          "type": "uint256"
        }
      ],
      "name": "approvedFor",
      "outputs": [
        {
          "name": "",
          "type": "address"
        }
      ],
      "payable": false,
      "stateMutability": "view",
      "type": "function"
    },
    {
      "constant": true,
      "inputs": [
        {
          "name": "_operator",
          "type": "address"
        },
        {
          "name": "_owner",
          "type": "address"
        }
      ],
      "name": "isApproved",
      "outputs": [
        {
          "name": "",
          "type": "bool"
        }
      ],
      "payable": false,
      "stateMutability": "view",
      "type": "function"
    },
    {
      "constant": true,
      "inputs": [
        {
          "name": "_operator",
          "type": "address"
        },
        {
          "name": "_owner",
          "type": "address"
        },
        {
          "name": "_tokenId",
          "type": "uint256"
        }
      ],
      "name": "isApproved",
      "outputs": [
        {
          "name": "",
          "type": "bool"
        }
      ],
      "payable": false,
      "stateMutability": "view",
      "type": "function"
    },
    {
      "constant": false,
      "inputs": [
        {
          "name": "_to",
          "type": "address"
        },
        {
          "name": "_tokenId",
          "type": "uint256"
        }
      ],
      "name": "approve",
      "outputs": [],
      "payable": false,
      "stateMutability": "nonpayable",
      "type": "function"
    },
    {
      "constant": true,
      "inputs": [
        {
          "name": "",
          "type": "address"
        },
        {
          "name": "",
          "type": "uint256"
        },
        {
          "name": "",
          "type": "bytes"
        }
      ],
      "name": "onERC721Received",
      "outputs": [
        {
          "name": "",
          "type": "bytes4"
        }
      ],
      "payable": false,
      "stateMutability": "view",
      "type": "function"
    }
  ],
  "bytecode": "0x608060405234801561001057600080fd5b50610022640100000000610027810204565b6101f4565b604080517f6973417070726f76656428616464726573732c616464726573732c75696e743281527f353629000000000000000000000000000000000000000000000000000000000060208083019190915282519182900360230182207f6973417070726f76656428616464726573732c616464726573732900000000008352835192839003601b0183207f7472616e7366657246726f6d28616464726573732c616464726573732c75696e8085527f743235362c62797465732900000000000000000000000000000000000000000085850152855194859003602b0185209085527f7432353629000000000000000000000000000000000000000000000000000000858501528551948590036025019094207fffffffff000000000000000000000000000000000000000000000000000000007fa1697483000000000000000000000000000000000000000000000000000000009190951890911890911818919091166000908152600191829052918220805460ff1990811683179091557f01ffc9a7000000000000000000000000000000000000000000000000000000009092527fb45820386466a8e01597d6e1efaf8f11ba4467972de5ca6c1f8aa3544ac2888e8054909216179055565b610dc5806102036000396000f3006080604052600436106100e55763ffffffff7c010000000000000000000000000000000000000000000000000000000060003504166301ffc9a781146100ea578063095ea7b31461012057806318160ddd1461014657806323b872dd1461016d5780632a6dd48f1461019757806342842e0e146101cb5780635a3f2672146101f55780636352211e1461026657806370a082311461027e5780637e1c0c091461029f578063a22cb465146102b4578063a389783e146102da578063ab67aa5814610301578063b88d4fde14610370578063e5af48d8146103df578063f0b9e5ba14610409575b600080fd5b3480156100f657600080fd5b5061010c600160e060020a03196004351661048f565b604080519115158252519081900360200190f35b34801561012c57600080fd5b50610144600160a060020a03600435166024356104ae565b005b34801561015257600080fd5b5061015b61056d565b60408051918252519081900360200190f35b34801561017957600080fd5b50610144600160a060020a0360043581169060243516604435610574565b3480156101a357600080fd5b506101af600435610595565b60408051600160a060020a039092168252519081900360200190f35b3480156101d757600080fd5b50610144600160a060020a03600435811690602435166044356105b0565b34801561020157600080fd5b50610216600160a060020a03600435166105cc565b60408051602080825283518183015283519192839290830191858101910280838360005b8381101561025257818101518382015260200161023a565b505050509050019250505060405180910390f35b34801561027257600080fd5b506101af600435610638565b34801561028a57600080fd5b5061015b600160a060020a0360043516610653565b3480156102ab57600080fd5b5061015b61066e565b3480156102c057600080fd5b50610144600160a060020a03600435166024351515610674565b3480156102e657600080fd5b5061010c600160a060020a0360043581169060243516610739565b34801561030d57600080fd5b50604080516020601f60643560048181013592830184900484028501840190955281845261014494600160a060020a03813581169560248035909216956044359536956084940191819084018382808284375094975061075b9650505050505050565b34801561037c57600080fd5b50604080516020601f60643560048181013592830184900484028501840190955281845261014494600160a060020a0381358116956024803590921695604435953695608494019181908401838280828437509497506107dd9650505050505050565b3480156103eb57600080fd5b5061010c600160a060020a03600435811690602435166044356107ff565b34801561041557600080fd5b50604080516020600460443581810135601f8101849004840285018401909552848452610472948235600160a060020a031694602480359536959460649492019190819084018382808284375094975061086d9650505050505050565b60408051600160e060020a03199092168252519081900360200190f35b600160e060020a03191660009081526001602052604090205460ff1690565b8033600160a060020a03166104c282610638565b600160a060020a0316146104d557600080fd5b33600160a060020a031683600160a060020a0316141515156104f657600080fd5b600082815260036020908152604091829020805473ffffffffffffffffffffffffffffffffffffffff1916600160a060020a0387811691821790925583518681529351909333909216927f8c5be1e5ebec7d5bd14f71427d1e84f3dd0314c0f7b2291e5b200ac8c7c3b925928290030190a3505050565b6000545b90565b610590838383602060405190810160405280600081525061075b565b505050565b600090815260036020526040902054600160a060020a031690565b61059083838360206040519081016040528060008152506107dd565b600160a060020a03811660009081526004602090815260409182902080548351818402810184019094528084526060939283018282801561062c57602002820191906000526020600020905b815481526020019060010190808311610618575b50505050509050919050565b600090815260026020526040902054600160a060020a031690565b600160a060020a031660009081526004602052604090205490565b60005481565b80156106bb5733600160a060020a039081166000908152600660205260409020805473ffffffffffffffffffffffffffffffffffffffff19169184169190911790556106ef565b600160a060020a0333166000908152600660205260409020805473ffffffffffffffffffffffffffffffffffffffff191690555b6040805182151581529051600160a060020a038085169233909116917f17307eab39ab6107e8899845ad3d59bd9653f200f220920489ca2b5937696c319181900360200190a35050565b600160a060020a03908116600090815260066020526040902054811691161490565b33600160a060020a031661076e83610595565b600160a060020a0316148061078857506107883385610739565b806107ac575033600160a060020a03166107a183610638565b600160a060020a0316145b15156107b757600080fd5b600160a060020a03831615156107cc57600080fd5b6107d7848484610895565b50505050565b6107e8848484610574565b6107f48484848461098d565b15156107d757600080fd5b600081815260036020526040812054600160a060020a0385811691161480156108655750600160a060020a0383166000908152600460209081526040808320858452600590925290912054815484929190811061085857fe5b9060005260206000200154145b949350505050565b7ff0b9e5ba000000000000000000000000000000000000000000000000000000009392505050565b600160a060020a03821615156108aa57600080fd5b6108b381610638565b600160a060020a03838116911614156108cb57600080fd5b82600160a060020a03166108de82610638565b600160a060020a0316146108f157600080fd5b6000818152600360205260409020805473ffffffffffffffffffffffffffffffffffffffff19169055600160a060020a03831615610933576109338382610afe565b61093d8282610c75565b81600160a060020a031683600160a060020a03167fddf252ad1be2c89b69c2b068fc378daa952ba7f163c4a11628f55a4df523b3ef836040518082815260200191505060405180910390a3505050565b6000806109a285600160a060020a0316610d2c565b15156109b15760019150610af5565b84600160a060020a031663f0b9e5ba8786866040518463ffffffff167c01000000000000000000000000000000000000000000000000000000000281526004018084600160a060020a0316600160a060020a0316815260200183815260200180602001828103825283818151815260200191508051906020019080838360005b83811015610a49578181015183820152602001610a31565b50505050905090810190601f168015610a765780820380516001836020036101000a031916815260200191505b50945050505050602060405180830381600087803b158015610a9757600080fd5b505af1158015610aab573d6000803e3d6000fd5b505050506040513d6020811015610ac157600080fd5b5051600160e060020a031981167ff0b9e5ba0000000000000000000000000000000000000000000000000000000014925090505b50949350505050565b600080600084600160a060020a0316610b1685610638565b600160a060020a031614610b2957600080fd5b6000848152600560205260409020549250610b546001610b4887610653565b9063ffffffff610d3416565b600160a060020a038616600090815260046020526040902080549193509083908110610b7c57fe5b6000918252602080832090910154868352600282526040808420805473ffffffffffffffffffffffffffffffffffffffff19169055600160a060020a0389168452600490925291208054919250829185908110610bd557fe5b6000918252602080832090910192909255600160a060020a0387168152600490915260408120805484908110610c0757fe5b6000918252602080832090910192909255600160a060020a0387168152600490915260409020805490610c3e906000198301610d5c565b50600084815260056020526040808220829055828252812084905554610c6b90600163ffffffff610d3416565b6000555050505050565b600081815260026020526040812054600160a060020a031615610c9757600080fd5b6000828152600260205260409020805473ffffffffffffffffffffffffffffffffffffffff1916600160a060020a038516179055610cd483610653565b600160a060020a038416600090815260046020908152604080832080546001818101835591855283852001879055868452600590925282208390559054919250610d24919063ffffffff610d4616565b600055505050565b6000903b1190565b600082821115610d4057fe5b50900390565b600082820183811015610d5557fe5b9392505050565b8154818355818111156105905760008381526020902061059091810190830161057191905b80821115610d955760008155600101610d81565b50905600a165627a7a72305820272a8db142a04456e68d3eb202d1bffd19cdc3a9592f73b6168bb5bc846363310029",
  "source": "pragma solidity ^0.4.18;\n\nimport \"./library/SafeMath.sol\";\nimport \"./library/ERC721Receiver.sol\";\nimport \"./library/AddressUtils.sol\";\n\n/**\n * @title ERC721Token\n * Implementation for the required functionality of the ERC721 standard\n * www.erc721.org as of 3/5/2018\n */\ncontract ERC721 {\n  using SafeMath for uint256;\n  using AddressUtils for address;\n  //The total number of tokens in existence\n  uint256 public totalTokens;\n      // Equals to `bytes4(keccak256(\"onERC721Received(address,uint256,bytes)\"))`\n  // which can be also obtained as `ERC721Receiver(0).onERC721Received.selector`\n  bytes4 constant ERC721_RECEIVED = 0xf0b9e5ba;\n  //A list of functions / interfaces supported by this contract\n  mapping(bytes4 => bool) internal supportedInterfaces;\n  //A mapping from the token ID to the owner of the token.\n  mapping(uint256 => address) tokenOwner;\n  //A mapping from tokenIDs to an address that has been approved to call\n  mapping(uint256 => address) tokenApproval;\n  // Mapping from owner to list of owned token IDs\n  mapping(address => uint256[]) ownedTokens;\n  // Mapping from token ID to index of the owner tokens list\n  mapping(uint256 => uint256) ownedTokensIndex;\n  //For assigning a total control of all tokens owned\n  mapping(address => address) approvedForAll;\n\n  event Transfer(address indexed _from, address indexed _to, uint256 _tokenId);\n  event ApprovalForAll(address indexed _owner, address indexed _operator, bool _approved);\n  event Approval(address indexed _owner, address indexed _operator, uint256 _tokenId);\n\n  /**\n  * @dev Guarantees msg.sender is owner of the given token\n  * @param _tokenId uint256 ID of the token to validate its ownership belongs to msg.sender\n  */\n  modifier onlyOwnerOf(uint256 _tokenId) {\n    require(ownerOf(_tokenId) == msg.sender);\n    _;\n  }\n\n  /***FUNCTIONS***/\n    /**\n   * @dev Constructor, it sets the interfaces (ERC721, ERC165)\n  */\n  function ERC721() public{\n    setInterface();\n  }\n\n  /**\n   * @dev Checks if this contract meeets a specific standard\n   * @param interfaceID bytes4 of the bytecode of a specific function or group of functions\n   * @return bool representing whether the bytecode is supported\n  */\n  function supportsInterface(bytes4 interfaceID) external view returns (bool) {\n        return supportedInterfaces[interfaceID];\n  }\n\n  \n\n  /** \n   * @dev Transfers a specific pet from one address to another\n   * @param _from is the address that the token will be sent from\n   * @param _to is the address we are sending the token to\n   * @param _tokenId the numeric identifier of a token\n  */\n  function transferFrom(address _from, address _to, uint256 _tokenId) public{\n    transferFrom(_from,_to,_tokenId,\"\");\n  }\n\n  /**\n  * @dev This overload transferFrom function is required on ERC721.org\n  * @param _from is the address that the token will be sent from\n  * @param _to is the address we are sending the token to\n  * @param _tokenId the uint256 numeric identifier of a token\n  * @param _data is the bytes data which will be logged with the transfer\n  */\n  function transferFrom(address _from, address _to, uint256 _tokenId, bytes _data) public{\n    require(approvedFor(_tokenId)==msg.sender || isApproved(msg.sender,_from)|| ownerOf(_tokenId)==msg.sender);\n    require (_to != address(0));\n    clearApprovalAndTransfer(_from,_to,_tokenId);\n  }\n\n\n  /** \n   * @dev Transfers a specific pet from one address to another\n   * @param _from is the address that the token will be sent from\n   * @param _to is the address we are sending the token to\n   * @param _tokenId the numeric identifier of a token\n  */\n  function safeTransferFrom(address _from, address _to, uint256 _tokenId) public{\n      safeTransferFrom(_from, _to, _tokenId,\"\");\n  }\n\n  /**\n  * @dev This overload transferFrom function is required on ERC721.org\n  * @param _from is the address that the token will be sent from\n  * @param _to is the address we are sending the token to\n  * @param _tokenId the uint256 numeric identifier of a token\n  * @param _data is the bytes data which will be logged with the transfer\n  */\n  function safeTransferFrom(address _from, address _to, uint256 _tokenId, bytes _data) public{\n    transferFrom(_from, _to, _tokenId);\n    require(checkAndCallSafeTransfer(_from, _to, _tokenId, _data));\n  }\n\n\n\n  /**\n  * @dev This function approves or dissaproves another address for control over the tokens owned by the sender\n  * @param _operator is the address that will be approved by the sender\n  * @param _approved is a bool with true as approve, false to remove approval\n  */\n  function setApprovalForAll(address _operator, bool _approved) public{\n        if(_approved){\n          approvedForAll[msg.sender] = _operator;\n        }\n        else{\n          approvedForAll[msg.sender] = address(0);\n        }\n        ApprovalForAll(msg.sender,_operator,_approved);\n  }\n\n  /**\n  * @dev Gets the total amount of tokens stored by the contract\n  * @return uint256 representing the total amount of tokens\n  */\n  function totalSupply() public view returns (uint256) {\n    return totalTokens;\n  }\n\n  /**\n  * @dev Gets the balance of the specified address\n  * @param _owner address to query the balance of\n  * @return uint256 representing the amount owned by the passed address\n  */\n  function balanceOf(address _owner) public view returns (uint256) {\n    return ownedTokens[_owner].length;\n  }\n\n  /**\n  * @dev Gets the list of tokens owned by a given address\n  * @param _owner address to query the tokens of\n  * @return uint256[] representing the list of tokens owned by the passed address\n  */\n  function tokensOf(address _owner) public view returns (uint256[]) {\n    return ownedTokens[_owner];\n  }\n\n  /**\n  * @dev Gets the owner of the specified token ID\n  * @param _tokenId uint256 ID of the token to query the owner of\n  * @return owner address currently marked as the owner of the given token ID\n  */\n  function ownerOf(uint256 _tokenId) public view returns (address) {\n    address owner = tokenOwner[_tokenId];\n    return owner;\n  }\n\n  /**\n   * @dev Gets the approved address to take ownership of a given token ID\n   * @param _tokenId uint256 ID of the token to query the approval of\n   * @return address currently approved to take ownership of the given token ID\n   */\n  function approvedFor(uint256 _tokenId) public view returns (address) {\n    return tokenApproval[_tokenId];\n  }\n\n  /**\n  * @dev This function checks whether an address has control over the tokens owned by another address\n  * @param _operator is the approved address\n  * @param _owner is the address to be checked if they gave approval\n  */\n  function isApproved(address _operator, address _owner) public constant returns (bool){\n    return(approvedForAll[_owner] == _operator);\n  }\n  \n  /**\n  * @dev This function checks whether an address has control over a specific token owned by another address\n  * @param _operator is the approved address\n  * @param _owner is the address to be checked if they gave approval\n  * @param _tokenId uint256 ID of the token to query the approval of\n  */\n  function isApproved(address _operator, address _owner, uint256 _tokenId) public constant returns (bool){\n      return(tokenApproval[_tokenId] == _operator && ownedTokens[_owner][ownedTokensIndex[_tokenId]] == _tokenId);\n  }\n  /**\n  * @dev Approves another address to claim for the ownership of the given token ID\n  * @param _to address to be approved for the given token ID\n  * @param _tokenId uint256 ID of the token to be approved\n  */\n  function approve(address _to, uint256 _tokenId) public onlyOwnerOf(_tokenId) {\n    require(_to != msg.sender);\n    tokenApproval[_tokenId] = _to;\n    Approval(msg.sender, _to, _tokenId);\n  }\n\n      /***INTERNAL FUNCTIONS***/\n  /**\n  * @dev Internal function to clear current approval and transfer the ownership of a given token ID\n  * @param _from address which you want to send tokens from\n  * @param _to address which you want to transfer the token to\n  * @param _tokenId uint256 ID of the token to be transferred\n  */\n  function clearApprovalAndTransfer(address _from, address _to, uint256 _tokenId) internal {\n    require(_to != address(0));\n    require(_to != ownerOf(_tokenId));\n    require(ownerOf(_tokenId) == _from );\n    tokenApproval[_tokenId] = address(0);\n    if(_from != address(0)){\n      removeToken(_from, _tokenId);\n    }\n    addToken(_to, _tokenId);\n    Transfer(_from, _to, _tokenId);\n  }\n  /**\n  * @dev Internal function to add a token ID to the list of a given address\n  * @param _to address representing the new owner of the given token ID\n  * @param _tokenId uint256 ID of the token to be added to the tokens list of the given address\n  */\n  function addToken(address _to, uint256 _tokenId) internal {\n    require(tokenOwner[_tokenId] == address(0));\n    tokenOwner[_tokenId] = _to;\n    uint256 length = balanceOf(_to);\n    ownedTokens[_to].push(_tokenId);\n    ownedTokensIndex[_tokenId] = length;\n    totalTokens = totalTokens.add(1);\n  }\n  /**\n  * @dev Internal function to remove a token ID from the list of a given address\n  * @param _from address representing the previous owner of the given token ID\n  * @param _tokenId uint256 ID of the token to be removed from the tokens list of the given address\n  */\n  function removeToken(address _from, uint256 _tokenId) internal {\n    require(ownerOf(_tokenId) == _from);\n    uint256 tokenIndex = ownedTokensIndex[_tokenId];\n    uint256 lastTokenIndex = balanceOf(_from).sub(1);\n    uint256 lastToken = ownedTokens[_from][lastTokenIndex];\n    tokenOwner[_tokenId] = 0;\n    ownedTokens[_from][tokenIndex] = lastToken;\n    ownedTokens[_from][lastTokenIndex] = 0;\n    // Note that this will handle single-element arrays. In that case, both tokenIndex and lastTokenIndex are going to\n    // be zero. Then we can make sure that we will remove _tokenId from the ownedTokens list since we are first swapping\n    // the lastToken to the first position, and then dropping the element placed in the last position of the list\n    ownedTokens[_from].length--;\n    ownedTokensIndex[_tokenId] = 0;\n    ownedTokensIndex[lastToken] = tokenIndex;\n    totalTokens = totalTokens.sub(1);\n  }\n\n  /** \n   * @dev States that code is stating that this contract meets ERC721 and ERC165 specifications\n  */\n  function setInterface() internal{\n          supportedInterfaces[this.supportsInterface.selector\n           ^ bytes4(keccak256(\"transferFrom(address,address,uint256)\"))\n           ^ bytes4(keccak256(\"transferFrom(address,address,uint256,bytes)\"))\n           ^ this.totalSupply.selector\n           ^ this.setApprovalForAll.selector\n           ^ this.balanceOf.selector\n           ^ this.ownerOf.selector\n           ^ bytes4(keccak256(\"isApproved(address,address)\"))\n           ^ bytes4(keccak256(\"isApproved(address,address,uint256)\"))\n           ^ this.approve.selector\n          ] = true;\n          supportedInterfaces[this.supportsInterface.selector\n          ] = true;\n  }\n\n  \n    /**\n  * @dev Internal function to invoke `onERC721Received` on a target address\n  * @dev The call is not executed if the target address is not a contract\n  * @param _from address representing the previous owner of the given token ID\n  * @param _to target address that will receive the tokens\n  * @param _tokenId uint256 ID of the token to be transferred\n  * @param _data bytes optional data to send along with the call\n  * @return whether the call correctly returned the expected magic value\n  */\n  function checkAndCallSafeTransfer(\n    address _from,\n    address _to,\n    uint256 _tokenId,\n    bytes _data\n  )\n    internal\n    returns (bool)\n  {\n    if (!_to.isContract()) {\n      return true;\n    }\n    bytes4 retval = ERC721Receiver(_to).onERC721Received(_from, _tokenId, _data);\n    return (retval == ERC721_RECEIVED);\n  }\n    /**\n   * @notice Handle the receipt of an NFT\n   * @dev The ERC721 smart contract calls this function on the recipient\n   *  after a `safetransfer`. This function MAY throw to revert and reject the\n   *  transfer. This function MUST use 50,000 gas or less. Return of other\n   *  than the magic value MUST result in the transaction being reverted.\n   *  Note: the contract address is always the message sender.\n   * _from The sending address\n   * _tokenId The NFT identifier which is being transfered\n   * _data Additional data with no specified format\n   * @return `bytes4(keccak256(\"onERC721Received(address,uint256,bytes)\"))`\n   */\n  function onERC721Received(address, uint256, bytes) public view returns(bytes4) {\n    return ERC721_RECEIVED;\n  }\n}",
  "sourcePath": "/Volumes/WORKSPACE/Development/Pavle/Photocoin/contracts/ERC721.sol",
  "compiler": {
    "name": "solc",
    "version": "0.4.23+commit.124ca40d.Emscripten.clang"
  },
  "schemaVersion": "2.0.0",
  "updatedAt": "2018-04-24T07:52:50.193Z"
}