{
  "contractName": "PhotoCore",
  "abi": [
    {
      "constant": true,
      "inputs": [
        {
          "name": "interfaceID",
          "type": "bytes4"
        }
      ],
      "name": "supportsInterface",
      "outputs": [
        {
          "name": "",
          "type": "bool"
        }
      ],
      "payable": false,
      "stateMutability": "view",
      "type": "function"
    },
    {
      "constant": true,
      "inputs": [],
      "name": "name",
      "outputs": [
        {
          "name": "",
          "type": "string"
        }
      ],
      "payable": false,
      "stateMutability": "view",
      "type": "function"
    },
    {
      "constant": false,
      "inputs": [
        {
          "name": "_to",
          "type": "address"
        },
        {
          "name": "_tokenId",
          "type": "uint256"
        }
      ],
      "name": "approve",
      "outputs": [],
      "payable": false,
      "stateMutability": "nonpayable",
      "type": "function"
    },
    {
      "constant": true,
      "inputs": [],
      "name": "auctionContract",
      "outputs": [
        {
          "name": "",
          "type": "address"
        }
      ],
      "payable": false,
      "stateMutability": "view",
      "type": "function"
    },
    {
      "constant": false,
      "inputs": [
        {
          "name": "_owner",
          "type": "address"
        }
      ],
      "name": "setOwner",
      "outputs": [],
      "payable": false,
      "stateMutability": "nonpayable",
      "type": "function"
    },
    {
      "constant": true,
      "inputs": [],
      "name": "totalSupply",
      "outputs": [
        {
          "name": "",
          "type": "uint256"
        }
      ],
      "payable": false,
      "stateMutability": "view",
      "type": "function"
    },
    {
      "constant": false,
      "inputs": [
        {
          "name": "_from",
          "type": "address"
        },
        {
          "name": "_to",
          "type": "address"
        },
        {
          "name": "_tokenId",
          "type": "uint256"
        }
      ],
      "name": "transferFrom",
      "outputs": [],
      "payable": false,
      "stateMutability": "nonpayable",
      "type": "function"
    },
    {
      "constant": true,
      "inputs": [
        {
          "name": "_tokenId",
          "type": "uint256"
        }
      ],
      "name": "approvedFor",
      "outputs": [
        {
          "name": "",
          "type": "address"
        }
      ],
      "payable": false,
      "stateMutability": "view",
      "type": "function"
    },
    {
      "constant": false,
      "inputs": [
        {
          "name": "_from",
          "type": "address"
        },
        {
          "name": "_to",
          "type": "address"
        },
        {
          "name": "_tokenId",
          "type": "uint256"
        }
      ],
      "name": "safeTransferFrom",
      "outputs": [],
      "payable": false,
      "stateMutability": "nonpayable",
      "type": "function"
    },
    {
      "constant": true,
      "inputs": [],
      "name": "whitelistOn",
      "outputs": [
        {
          "name": "",
          "type": "bool"
        }
      ],
      "payable": false,
      "stateMutability": "view",
      "type": "function"
    },
    {
      "constant": false,
      "inputs": [
        {
          "name": "_user",
          "type": "address"
        },
        {
          "name": "_trueorfalse",
          "type": "bool"
        }
      ],
      "name": "setWhitelist",
      "outputs": [],
      "payable": false,
      "stateMutability": "nonpayable",
      "type": "function"
    },
    {
      "constant": true,
      "inputs": [
        {
          "name": "_owner",
          "type": "address"
        }
      ],
      "name": "tokensOf",
      "outputs": [
        {
          "name": "",
          "type": "uint256[]"
        }
      ],
      "payable": false,
      "stateMutability": "view",
      "type": "function"
    },
    {
      "constant": true,
      "inputs": [
        {
          "name": "_tokenId",
          "type": "uint256"
        }
      ],
      "name": "ownerOf",
      "outputs": [
        {
          "name": "",
          "type": "address"
        }
      ],
      "payable": false,
      "stateMutability": "view",
      "type": "function"
    },
    {
      "constant": false,
      "inputs": [
        {
          "name": "_market",
          "type": "address"
        }
      ],
      "name": "setMarket",
      "outputs": [],
      "payable": false,
      "stateMutability": "nonpayable",
      "type": "function"
    },
    {
      "constant": true,
      "inputs": [
        {
          "name": "_owner",
          "type": "address"
        }
      ],
      "name": "balanceOf",
      "outputs": [
        {
          "name": "",
          "type": "uint256"
        }
      ],
      "payable": false,
      "stateMutability": "view",
      "type": "function"
    },
    {
      "constant": false,
      "inputs": [],
      "name": "toggleWhitelist",
      "outputs": [
        {
          "name": "",
          "type": "bool"
        }
      ],
      "payable": false,
      "stateMutability": "nonpayable",
      "type": "function"
    },
    {
      "constant": true,
      "inputs": [],
      "name": "totalTokens",
      "outputs": [
        {
          "name": "",
          "type": "uint256"
        }
      ],
      "payable": false,
      "stateMutability": "view",
      "type": "function"
    },
    {
      "constant": true,
      "inputs": [],
      "name": "allowUploads",
      "outputs": [
        {
          "name": "",
          "type": "bool"
        }
      ],
      "payable": false,
      "stateMutability": "view",
      "type": "function"
    },
    {
      "constant": true,
      "inputs": [],
      "name": "owner",
      "outputs": [
        {
          "name": "",
          "type": "address"
        }
      ],
      "payable": false,
      "stateMutability": "view",
      "type": "function"
    },
    {
      "constant": true,
      "inputs": [],
      "name": "symbol",
      "outputs": [
        {
          "name": "",
          "type": "string"
        }
      ],
      "payable": false,
      "stateMutability": "view",
      "type": "function"
    },
    {
      "constant": true,
      "inputs": [],
      "name": "marketContract",
      "outputs": [
        {
          "name": "",
          "type": "address"
        }
      ],
      "payable": false,
      "stateMutability": "view",
      "type": "function"
    },
    {
      "constant": false,
      "inputs": [
        {
          "name": "_operator",
          "type": "address"
        },
        {
          "name": "_approved",
          "type": "bool"
        }
      ],
      "name": "setApprovalForAll",
      "outputs": [],
      "payable": false,
      "stateMutability": "nonpayable",
      "type": "function"
    },
    {
      "constant": true,
      "inputs": [
        {
          "name": "_operator",
          "type": "address"
        },
        {
          "name": "_owner",
          "type": "address"
        }
      ],
      "name": "isApproved",
      "outputs": [
        {
          "name": "",
          "type": "bool"
        }
      ],
      "payable": false,
      "stateMutability": "view",
      "type": "function"
    },
    {
      "constant": false,
      "inputs": [
        {
          "name": "_from",
          "type": "address"
        },
        {
          "name": "_to",
          "type": "address"
        },
        {
          "name": "_tokenId",
          "type": "uint256"
        },
        {
          "name": "_data",
          "type": "bytes"
        }
      ],
      "name": "transferFrom",
      "outputs": [],
      "payable": false,
      "stateMutability": "nonpayable",
      "type": "function"
    },
    {
      "constant": true,
      "inputs": [
        {
          "name": "_tokenId",
          "type": "uint256"
        }
      ],
      "name": "getPhoto",
      "outputs": [
        {
          "name": "",
          "type": "string"
        },
        {
          "name": "",
          "type": "string"
        },
        {
          "name": "",
          "type": "uint256"
        },
        {
          "name": "",
          "type": "uint64"
        }
      ],
      "payable": false,
      "stateMutability": "view",
      "type": "function"
    },
    {
      "constant": false,
      "inputs": [
        {
          "name": "_from",
          "type": "address"
        },
        {
          "name": "_to",
          "type": "address"
        },
        {
          "name": "_tokenId",
          "type": "uint256"
        },
        {
          "name": "_data",
          "type": "bytes"
        }
      ],
      "name": "safeTransferFrom",
      "outputs": [],
      "payable": false,
      "stateMutability": "nonpayable",
      "type": "function"
    },
    {
      "constant": false,
      "inputs": [
        {
          "name": "_auction",
          "type": "address"
        }
      ],
      "name": "setAuction",
      "outputs": [],
      "payable": false,
      "stateMutability": "nonpayable",
      "type": "function"
    },
    {
      "constant": true,
      "inputs": [
        {
          "name": "_user",
          "type": "address"
        }
      ],
      "name": "isWhitelist",
      "outputs": [
        {
          "name": "",
          "type": "bool"
        }
      ],
      "payable": false,
      "stateMutability": "view",
      "type": "function"
    },
    {
      "constant": true,
      "inputs": [
        {
          "name": "_operator",
          "type": "address"
        },
        {
          "name": "_owner",
          "type": "address"
        },
        {
          "name": "_tokenId",
          "type": "uint256"
        }
      ],
      "name": "isApproved",
      "outputs": [
        {
          "name": "",
          "type": "bool"
        }
      ],
      "payable": false,
      "stateMutability": "view",
      "type": "function"
    },
    {
      "constant": true,
      "inputs": [
        {
          "name": "",
          "type": "address"
        },
        {
          "name": "",
          "type": "uint256"
        },
        {
          "name": "",
          "type": "bytes"
        }
      ],
      "name": "onERC721Received",
      "outputs": [
        {
          "name": "",
          "type": "bytes4"
        }
      ],
      "payable": false,
      "stateMutability": "view",
      "type": "function"
    },
    {
      "inputs": [],
      "payable": false,
      "stateMutability": "nonpayable",
      "type": "constructor"
    },
    {
      "payable": true,
      "stateMutability": "payable",
      "type": "fallback"
    },
    {
      "anonymous": false,
      "inputs": [
        {
          "indexed": true,
          "name": "_owner",
          "type": "address"
        },
        {
          "indexed": false,
          "name": "_photoId",
          "type": "uint256"
        },
        {
          "indexed": false,
          "name": "_photoHash",
          "type": "bytes32"
        },
        {
          "indexed": false,
          "name": "_name",
          "type": "string"
        },
        {
          "indexed": false,
          "name": "_photographer",
          "type": "string"
        },
        {
          "indexed": false,
          "name": "_isenNumber",
          "type": "uint256"
        }
      ],
      "name": "Upload",
      "type": "event"
    },
    {
      "anonymous": false,
      "inputs": [
        {
          "indexed": true,
          "name": "_from",
          "type": "address"
        },
        {
          "indexed": true,
          "name": "_to",
          "type": "address"
        },
        {
          "indexed": false,
          "name": "_tokenId",
          "type": "uint256"
        }
      ],
      "name": "Transfer",
      "type": "event"
    },
    {
      "anonymous": false,
      "inputs": [
        {
          "indexed": true,
          "name": "_owner",
          "type": "address"
        },
        {
          "indexed": true,
          "name": "_operator",
          "type": "address"
        },
        {
          "indexed": false,
          "name": "_approved",
          "type": "bool"
        }
      ],
      "name": "ApprovalForAll",
      "type": "event"
    },
    {
      "anonymous": false,
      "inputs": [
        {
          "indexed": true,
          "name": "_owner",
          "type": "address"
        },
        {
          "indexed": true,
          "name": "_operator",
          "type": "address"
        },
        {
          "indexed": false,
          "name": "_tokenId",
          "type": "uint256"
        }
      ],
      "name": "Approval",
      "type": "event"
    },
    {
      "constant": false,
      "inputs": [],
      "name": "setAllowUploads",
      "outputs": [],
      "payable": false,
      "stateMutability": "nonpayable",
      "type": "function"
    },
    {
      "constant": false,
      "inputs": [
        {
          "name": "_photoHash",
          "type": "bytes32"
        },
        {
          "name": "_name",
          "type": "string"
        },
        {
          "name": "_photographer",
          "type": "string"
        },
        {
          "name": "_isenNumber",
          "type": "uint256"
        },
        {
          "name": "_owner",
          "type": "address"
        }
      ],
      "name": "uploadPhoto",
      "outputs": [],
      "payable": false,
      "stateMutability": "nonpayable",
      "type": "function"
    }
  ],
  "bytecode": "0x60c0604052600960808190527f50686f746f436f696e000000000000000000000000000000000000000000000060a09081526200004091600d9190620002b8565b506040805180820190915260028082527f504300000000000000000000000000000000000000000000000000000000000060209092019182526200008791600e91620002b8565b503480156200009557600080fd5b50620000a9640100000000620000eb810204565b60078054600160a060020a03191633600160a060020a039081169190911791829055166000908152600b60205260409020805460ff191660011790556200035d565b604080517f6973417070726f76656428616464726573732c616464726573732c75696e743281527f353629000000000000000000000000000000000000000000000000000000000060208083019190915282519182900360230182207f6973417070726f76656428616464726573732c616464726573732900000000008352835192839003601b0183207f7472616e7366657246726f6d28616464726573732c616464726573732c75696e8085527f743235362c62797465732900000000000000000000000000000000000000000085850152855194859003602b0185209085527f7432353629000000000000000000000000000000000000000000000000000000858501528551948590036025019094207fffffffff000000000000000000000000000000000000000000000000000000007fa1697483000000000000000000000000000000000000000000000000000000009190951890911890911818919091166000908152600191829052918220805460ff1990811683179091557f01ffc9a7000000000000000000000000000000000000000000000000000000009092527fb45820386466a8e01597d6e1efaf8f11ba4467972de5ca6c1f8aa3544ac2888e8054909216179055565b828054600181600116156101000203166002900490600052602060002090601f016020900481019282601f10620002fb57805160ff19168380011785556200032b565b828001600101855582156200032b579182015b828111156200032b5782518255916020019190600101906200030e565b50620003399291506200033d565b5090565b6200035a91905b8082111562000339576000815560010162000344565b90565b611a5e806200036d6000396000f3006080604052600436106101955763ffffffff7c010000000000000000000000000000000000000000000000000000000060003504166301ffc9a781146101a257806306fdde03146101d8578063095ea7b3146102625780630ab8afac1461028657806313af4035146102b757806318160ddd146102d857806323b872dd146102ff5780632a6dd48f1461032957806342842e0e146103415780634917aa3f1461036b57806353d6fd59146103805780635a3f2672146103a65780636352211e146104175780636dcea85f1461042f57806370a08231146104505780637e15144b146104715780637e1c0c0914610486578063821ed3a61461049b5780638da5cb5b146104b057806395d89b41146104c5578063987e9bfb146104da578063a1794bcd14610587578063a22cb4651461059c578063a389783e146105c2578063ab67aa58146105e9578063b6be128a14610658578063b88d4fde14610764578063b8c6f579146107d3578063c683630d146107f4578063c8e87f6814610815578063e5af48d81461082a578063f0b9e5ba14610854575b34156101a057600080fd5b005b3480156101ae57600080fd5b506101c4600160e060020a0319600435166108da565b604080519115158252519081900360200190f35b3480156101e457600080fd5b506101ed6108f9565b6040805160208082528351818301528351919283929083019185019080838360005b8381101561022757818101518382015260200161020f565b50505050905090810190601f1680156102545780820380516001836020036101000a031916815260200191505b509250505060405180910390f35b34801561026e57600080fd5b506101a0600160a060020a0360043516602435610987565b34801561029257600080fd5b5061029b610a39565b60408051600160a060020a039092168252519081900360200190f35b3480156102c357600080fd5b506101a0600160a060020a0360043516610a48565b3480156102e457600080fd5b506102ed610a85565b60408051918252519081900360200190f35b34801561030b57600080fd5b506101a0600160a060020a0360043581169060243516604435610a8c565b34801561033557600080fd5b5061029b600435610bb4565b34801561034d57600080fd5b506101a0600160a060020a0360043581169060243516604435610bcf565b34801561037757600080fd5b506101c4610beb565b34801561038c57600080fd5b506101a0600160a060020a03600435166024351515610bf4565b3480156103b257600080fd5b506103c7600160a060020a0360043516610c3a565b60408051602080825283518183015283519192839290830191858101910280838360005b838110156104035781810151838201526020016103eb565b505050509050019250505060405180910390f35b34801561042357600080fd5b5061029b600435610ca6565b34801561043b57600080fd5b506101a0600160a060020a0360043516610cc1565b34801561045c57600080fd5b506102ed600160a060020a0360043516610cfe565b34801561047d57600080fd5b506101c4610d19565b34801561049257600080fd5b506102ed610d50565b3480156104a757600080fd5b506101c4610d56565b3480156104bc57600080fd5b5061029b610d77565b3480156104d157600080fd5b506101ed610d86565b3480156104e657600080fd5b5060408051602060046024803582810135601f81018590048502860185019096528585526101a095833595369560449491939091019190819084018382808284375050604080516020601f89358b018035918201839004830284018301909452808352979a9998810197919650918201945092508291508401838280828437509497505084359550505050602090910135600160a060020a03169050610de1565b34801561059357600080fd5b5061029b611039565b3480156105a857600080fd5b506101a0600160a060020a03600435166024351515611048565b3480156105ce57600080fd5b506101c4600160a060020a03600435811690602435166110f3565b3480156105f557600080fd5b50604080516020601f6064356004818101359283018490048402850184019095528184526101a094600160a060020a0381358116956024803590921695604435953695608494019181908401838280828437509497506111159650505050505050565b34801561066457600080fd5b50610670600435611197565b6040805190810183905267ffffffffffffffff8216606082015260808082528551908201528451819060208083019160a084019189019080838360005b838110156106c55781810151838201526020016106ad565b50505050905090810190601f1680156106f25780820380516001836020036101000a031916815260200191505b50838103825286518152865160209182019188019080838360005b8381101561072557818101518382015260200161070d565b50505050905090810190601f1680156107525780820380516001836020036101000a031916815260200191505b50965050505050505060405180910390f35b34801561077057600080fd5b50604080516020601f6064356004818101359283018490048402850184019095528184526101a094600160a060020a03813581169560248035909216956044359536956084940191819084018382808284375094975061133b9650505050505050565b3480156107df57600080fd5b506101a0600160a060020a036004351661135d565b34801561080057600080fd5b506101c4600160a060020a036004351661139a565b34801561082157600080fd5b506101a06113b8565b34801561083657600080fd5b506101c4600160a060020a0360043581169060243516604435611416565b34801561086057600080fd5b50604080516020600460443581810135601f81018490048402850184019095528484526108bd948235600160a060020a03169460248035953695946064949201919081908401838280828437509497506114849650505050505050565b60408051600160e060020a03199092168252519081900360200190f35b600160e060020a03191660009081526001602052604090205460ff1690565b600d805460408051602060026001851615610100026000190190941693909304601f8101849004840282018401909252818152929183018282801561097f5780601f106109545761010080835404028352916020019161097f565b820191906000526020600020905b81548152906001019060200180831161096257829003601f168201915b505050505081565b8033600160a060020a031661099b82610ca6565b600160a060020a0316146109ae57600080fd5b33600160a060020a031683600160a060020a0316141515156109cf57600080fd5b6000828152600360209081526040918290208054600160a060020a031916600160a060020a0387811691821790925583518681529351909333909216927f8c5be1e5ebec7d5bd14f71427d1e84f3dd0314c0f7b2291e5b200ac8c7c3b925928290030190a3505050565b600954600160a060020a031681565b60075433600160a060020a03908116911614610a6357600080fd5b60078054600160a060020a031916600160a060020a0392909216919091179055565b6000545b90565b600160a060020a038316158015610abd575060095474010000000000000000000000000000000000000000900460ff165b80610ae8575060075433600160a060020a039081169116148015610ae85750600160a060020a038316155b80610af85750610af833846110f3565b80610b095750610b09338483611416565b80610b2d575033600160a060020a0316610b2282610ca6565b600160a060020a0316145b80610b46575060085433600160a060020a039081169116145b80610b5f575060095433600160a060020a039081169116145b1515610b6a57600080fd5b600c5460ff161580610b995750600160a060020a0382166000908152600b602052604090205460ff1615156001145b1515610ba457600080fd5b610baf8383836114ac565b505050565b600090815260036020526040902054600160a060020a031690565b610baf838383602060405190810160405280600081525061133b565b600c5460ff1681565b60075433600160a060020a03908116911614610c0f57600080fd5b600160a060020a03919091166000908152600b60205260409020805460ff1916911515919091179055565b600160a060020a038116600090815260046020908152604091829020805483518184028101840190945280845260609392830182828015610c9a57602002820191906000526020600020905b815481526020019060010190808311610c86575b50505050509050919050565b600090815260026020526040902054600160a060020a031690565b60075433600160a060020a03908116911614610cdc57600080fd5b60088054600160a060020a031916600160a060020a0392909216919091179055565b600160a060020a031660009081526004602052604090205490565b60075460009033600160a060020a03908116911614610d3757600080fd5b50600c805460ff19811660ff9182161517918290551690565b60005481565b60095474010000000000000000000000000000000000000000900460ff1681565b600754600160a060020a031681565b600e805460408051602060026001851615610100026000190190941693909304601f8101849004840282018401909252818152929183018282801561097f5780601f106109545761010080835404028352916020019161097f565b6000600160a060020a0382161515610e0257600754600160a060020a031691505b60095474010000000000000000000000000000000000000000900460ff16151560011480610e3e575060075433600160a060020a039081169116145b1515610e4957600080fd5b50600080546040805160a08101825287815260208082018890528183018a90526060820187905267ffffffffffffffff42166080830152838552600a815291909320835180519394939192610ea39284929091019061194c565b506020828101518051610ebc926001850192019061194c565b5060408201516002820155606082015160038201556080909101516004909101805467ffffffffffffffff191667ffffffffffffffff909216919091179055610f0760008383610a8c565b81600160a060020a03167f617db0c49289b17c180e87517cabec78402cfe15781318051fe9165e9017e09f82888888886040518086815260200185600019166000191681526020018060200180602001848152602001838103835286818151815260200191508051906020019080838360005b83811015610f92578181015183820152602001610f7a565b50505050905090810190601f168015610fbf5780820380516001836020036101000a031916815260200191505b50838103825285518152855160209182019187019080838360005b83811015610ff2578181015183820152602001610fda565b50505050905090810190601f16801561101f5780820380516001836020036101000a031916815260200191505b5097505050505050505060405180910390a2505050505050565b600854600160a060020a031681565b80156110825733600160a060020a0390811660009081526006602052604090208054600160a060020a0319169184169190911790556110a9565b600160a060020a03331660009081526006602052604090208054600160a060020a03191690555b6040805182151581529051600160a060020a038085169233909116917f17307eab39ab6107e8899845ad3d59bd9653f200f220920489ca2b5937696c319181900360200190a35050565b600160a060020a03908116600090815260066020526040902054811691161490565b33600160a060020a031661112883610bb4565b600160a060020a03161480611142575061114233856110f3565b80611166575033600160a060020a031661115b83610ca6565b600160a060020a0316145b151561117157600080fd5b600160a060020a038316151561118657600080fd5b6111918484846114ac565b50505050565b6060806000806111a56119ca565b6000868152600a60209081526040918290208251815460026001821615610100026000190190911604601f8101849004909302810160c090810190945260a081018381529093919284928491908401828280156112435780601f1061121857610100808354040283529160200191611243565b820191906000526020600020905b81548152906001019060200180831161122657829003601f168201915b50505050508152602001600182018054600181600116156101000203166002900480601f0160208091040260200160405190810160405280929190818152602001828054600181600116156101000203166002900480156112e55780601f106112ba576101008083540402835291602001916112e5565b820191906000526020600020905b8154815290600101906020018083116112c857829003601f168201915b505050918352505060028201546020808301919091526003830154604083015260049092015467ffffffffffffffff16606091820152825191830151908301516080909301519199909850919650945092505050565b611346848484610a8c565b61135284848484611597565b151561119157600080fd5b60075433600160a060020a0390811691161461137857600080fd5b60098054600160a060020a031916600160a060020a0392909216919091179055565b600160a060020a03166000908152600b602052604090205460ff1690565b60075433600160a060020a039081169116146113d357600080fd5b6009805474ff0000000000000000000000000000000000000000198116740100000000000000000000000000000000000000009182900460ff1615909102179055565b600081815260036020526040812054600160a060020a03858116911614801561147c5750600160a060020a0383166000908152600460209081526040808320858452600590925290912054815484929190811061146f57fe5b9060005260206000200154145b949350505050565b7ff0b9e5ba000000000000000000000000000000000000000000000000000000009392505050565b600160a060020a03821615156114c157600080fd5b6114ca81610ca6565b600160a060020a03838116911614156114e257600080fd5b82600160a060020a03166114f582610ca6565b600160a060020a03161461150857600080fd5b60008181526003602052604090208054600160a060020a0319169055600160a060020a0383161561153d5761153d8382611708565b6115478282611872565b81600160a060020a031683600160a060020a03167fddf252ad1be2c89b69c2b068fc378daa952ba7f163c4a11628f55a4df523b3ef836040518082815260200191505060405180910390a3505050565b6000806115ac85600160a060020a031661191c565b15156115bb57600191506116ff565b84600160a060020a031663f0b9e5ba8786866040518463ffffffff167c01000000000000000000000000000000000000000000000000000000000281526004018084600160a060020a0316600160a060020a0316815260200183815260200180602001828103825283818151815260200191508051906020019080838360005b8381101561165357818101518382015260200161163b565b50505050905090810190601f1680156116805780820380516001836020036101000a031916815260200191505b50945050505050602060405180830381600087803b1580156116a157600080fd5b505af11580156116b5573d6000803e3d6000fd5b505050506040513d60208110156116cb57600080fd5b5051600160e060020a031981167ff0b9e5ba0000000000000000000000000000000000000000000000000000000014925090505b50949350505050565b600080600084600160a060020a031661172085610ca6565b600160a060020a03161461173357600080fd5b600084815260056020526040902054925061175e600161175287610cfe565b9063ffffffff61192416565b600160a060020a03861660009081526004602052604090208054919350908390811061178657fe5b60009182526020808320909101548683526002825260408084208054600160a060020a0319169055600160a060020a03891684526004909252912080549192508291859081106117d257fe5b6000918252602080832090910192909255600160a060020a038716815260049091526040812080548490811061180457fe5b6000918252602080832090910192909255600160a060020a038716815260049091526040902080549061183b9060001983016119f8565b5060008481526005602052604080822082905582825281208490555461186890600163ffffffff61192416565b6000555050505050565b600081815260026020526040812054600160a060020a03161561189457600080fd5b60008281526002602052604090208054600160a060020a031916600160a060020a0385161790556118c483610cfe565b600160a060020a038416600090815260046020908152604080832080546001818101835591855283852001879055868452600590925282208390559054919250611914919063ffffffff61193616565b600055505050565b6000903b1190565b60008282111561193057fe5b50900390565b60008282018381101561194557fe5b9392505050565b828054600181600116156101000203166002900490600052602060002090601f016020900481019282601f1061198d57805160ff19168380011785556119ba565b828001600101855582156119ba579182015b828111156119ba57825182559160200191906001019061199f565b506119c6929150611a18565b5090565b6040805160a08101825260608082526020820181905260009282018390528101829052608081019190915290565b815481835581811115610baf57600083815260209020610baf9181019083015b610a8991905b808211156119c65760008155600101611a1e5600a165627a7a72305820369c812723c6ff385f749881b914717a5667a66a66944243362f4c8ce9e8abc00029",
  "source": "pragma solidity ^0.4.18;\n\nimport \"./PhotoBase.sol\";\n\n/**\n*@title PhotoCore\n* Front contract for Photocoin. Holds uploadPhoto funtionality and token name and symbol\n*/\ncontract PhotoCore is PhotoBase{\n    // @notice Name and symbol of the non fungible token\n    string public name = \"PhotoCoin\";\n    string public symbol = \"PC\";\n\n    /**\n    *@dev Creates the main Photocoin smart contract instance and sets the owner\n    */\n    function PhotoCore() public {\n        owner = msg.sender;\n        whitelist[owner] = true;\n    }\n\n    /**\n    *@notice No tipping!\n    *@dev fallback function to reject all Ether from being sent to contract\n    */\n    function() external payable {\n        require(msg.value == 0);\n    }\n\n    /**\n    *@dev this function changes whether or not uploads are allowed by people other than the owner\n    */\n    function setAllowUploads() public onlyOwner(){\n        allowUploads = (!allowUploads);\n    }\n\n    /**\n    *@dev this is the function to create a new photocoin and update the mappings with a new token\n    *@param _photoHash is the hash of the photograph\n    *@param _name is a string variable representing the name of the photograph\n    *@param _photographer is a string variable representing the name of the photographer\n    *@param _isenNumber is the uint ISEN number\n    *@param _owner is the address of the new owner of the token\n    */\n    function uploadPhoto(bytes32 _photoHash,string _name, string _photographer, uint256 _isenNumber, address _owner) public{\n        if(_owner == address(0)) {\n            _owner = owner;\n        }\n        require (allowUploads == true || msg.sender == owner);\n        uint256 newId = totalTokens;\n        photos[newId] = Photo({\n            name: _name,\n            photographer: _photographer,\n            photoHash: _photoHash,\n            isenNumber: _isenNumber,\n            uploadTime: uint64(now)\n            });\n        transferFrom(address(0),_owner,newId);\n        Upload(_owner,newId,_photoHash, _name,_photographer,_isenNumber);\n    }\n}",
  "sourcePath": "/Volumes/WORKSPACE/Development/Pavle/Photocoin/contracts/PhotoCore.sol",
  "compiler": {
    "name": "solc",
    "version": "0.4.23+commit.124ca40d.Emscripten.clang"
  },
  "schemaVersion": "2.0.0",
  "updatedAt": "2018-04-24T07:53:05.311Z"
}