{
  "contractName": "PhotoMarket",
  "abi": [
    {
      "constant": true,
      "inputs": [
        {
          "name": "",
          "type": "uint256"
        }
      ],
      "name": "forSale",
      "outputs": [
        {
          "name": "",
          "type": "uint256"
        }
      ],
      "payable": false,
      "stateMutability": "view",
      "type": "function"
    },
    {
      "constant": true,
      "inputs": [
        {
          "name": "",
          "type": "uint256"
        }
      ],
      "name": "forLease",
      "outputs": [
        {
          "name": "",
          "type": "uint256"
        }
      ],
      "payable": false,
      "stateMutability": "view",
      "type": "function"
    },
    {
      "constant": true,
      "inputs": [
        {
          "name": "",
          "type": "uint256"
        }
      ],
      "name": "leases",
      "outputs": [
        {
          "name": "maker",
          "type": "address"
        },
        {
          "name": "price",
          "type": "uint256"
        }
      ],
      "payable": false,
      "stateMutability": "view",
      "type": "function"
    },
    {
      "constant": true,
      "inputs": [],
      "name": "owner",
      "outputs": [
        {
          "name": "",
          "type": "address"
        }
      ],
      "payable": false,
      "stateMutability": "view",
      "type": "function"
    },
    {
      "constant": true,
      "inputs": [
        {
          "name": "",
          "type": "uint256"
        }
      ],
      "name": "orders",
      "outputs": [
        {
          "name": "maker",
          "type": "address"
        },
        {
          "name": "price",
          "type": "uint256"
        }
      ],
      "payable": false,
      "stateMutability": "view",
      "type": "function"
    },
    {
      "constant": true,
      "inputs": [],
      "name": "fee",
      "outputs": [
        {
          "name": "",
          "type": "uint256"
        }
      ],
      "payable": false,
      "stateMutability": "view",
      "type": "function"
    },
    {
      "inputs": [],
      "payable": false,
      "stateMutability": "nonpayable",
      "type": "constructor"
    },
    {
      "payable": true,
      "stateMutability": "payable",
      "type": "fallback"
    },
    {
      "anonymous": false,
      "inputs": [
        {
          "indexed": false,
          "name": "_tokenId",
          "type": "uint256"
        },
        {
          "indexed": false,
          "name": "_seller",
          "type": "address"
        },
        {
          "indexed": false,
          "name": "_price",
          "type": "uint256"
        }
      ],
      "name": "OrderPlaced",
      "type": "event"
    },
    {
      "anonymous": false,
      "inputs": [
        {
          "indexed": false,
          "name": "_buyer",
          "type": "address"
        },
        {
          "indexed": false,
          "name": "_seller",
          "type": "address"
        },
        {
          "indexed": false,
          "name": "_tokenId",
          "type": "uint256"
        },
        {
          "indexed": false,
          "name": "_price",
          "type": "uint256"
        }
      ],
      "name": "Sale",
      "type": "event"
    },
    {
      "anonymous": false,
      "inputs": [
        {
          "indexed": false,
          "name": "_tokenId",
          "type": "uint256"
        }
      ],
      "name": "OrderRemoved",
      "type": "event"
    },
    {
      "anonymous": false,
      "inputs": [
        {
          "indexed": false,
          "name": "_tokenId",
          "type": "uint256"
        },
        {
          "indexed": false,
          "name": "_seller",
          "type": "address"
        },
        {
          "indexed": false,
          "name": "_price",
          "type": "uint256"
        }
      ],
      "name": "LeaseOrderPlaced",
      "type": "event"
    },
    {
      "anonymous": false,
      "inputs": [
        {
          "indexed": false,
          "name": "_buyer",
          "type": "address"
        },
        {
          "indexed": false,
          "name": "_seller",
          "type": "address"
        },
        {
          "indexed": false,
          "name": "_tokenId",
          "type": "uint256"
        },
        {
          "indexed": false,
          "name": "_price",
          "type": "uint256"
        }
      ],
      "name": "Lease",
      "type": "event"
    },
    {
      "anonymous": false,
      "inputs": [
        {
          "indexed": false,
          "name": "_tokenId",
          "type": "uint256"
        }
      ],
      "name": "LeaseOrderRemoved",
      "type": "event"
    },
    {
      "constant": false,
      "inputs": [
        {
          "name": "_tokenId",
          "type": "uint256"
        },
        {
          "name": "_price",
          "type": "uint256"
        }
      ],
      "name": "listPhoto",
      "outputs": [],
      "payable": false,
      "stateMutability": "nonpayable",
      "type": "function"
    },
    {
      "constant": false,
      "inputs": [
        {
          "name": "_tokenId",
          "type": "uint256"
        }
      ],
      "name": "unlistPhoto",
      "outputs": [],
      "payable": false,
      "stateMutability": "nonpayable",
      "type": "function"
    },
    {
      "constant": false,
      "inputs": [
        {
          "name": "_tokenId",
          "type": "uint256"
        }
      ],
      "name": "buyPhoto",
      "outputs": [],
      "payable": true,
      "stateMutability": "payable",
      "type": "function"
    },
    {
      "constant": false,
      "inputs": [
        {
          "name": "_tokenId",
          "type": "uint256"
        },
        {
          "name": "_price",
          "type": "uint256"
        }
      ],
      "name": "listLease",
      "outputs": [],
      "payable": false,
      "stateMutability": "nonpayable",
      "type": "function"
    },
    {
      "constant": false,
      "inputs": [
        {
          "name": "_tokenId",
          "type": "uint256"
        }
      ],
      "name": "unlistLease",
      "outputs": [],
      "payable": false,
      "stateMutability": "nonpayable",
      "type": "function"
    },
    {
      "constant": false,
      "inputs": [
        {
          "name": "_tokenId",
          "type": "uint256"
        }
      ],
      "name": "buyLease",
      "outputs": [],
      "payable": true,
      "stateMutability": "payable",
      "type": "function"
    },
    {
      "constant": true,
      "inputs": [
        {
          "name": "_tokenId",
          "type": "uint256"
        }
      ],
      "name": "getOrder",
      "outputs": [
        {
          "name": "",
          "type": "address"
        },
        {
          "name": "",
          "type": "uint256"
        }
      ],
      "payable": false,
      "stateMutability": "view",
      "type": "function"
    },
    {
      "constant": true,
      "inputs": [
        {
          "name": "_tokenId",
          "type": "uint256"
        }
      ],
      "name": "getLeases",
      "outputs": [
        {
          "name": "",
          "type": "address"
        },
        {
          "name": "",
          "type": "uint256"
        }
      ],
      "payable": false,
      "stateMutability": "view",
      "type": "function"
    },
    {
      "constant": true,
      "inputs": [
        {
          "name": "_party",
          "type": "address"
        }
      ],
      "name": "getLeasebyOwner",
      "outputs": [
        {
          "name": "",
          "type": "uint256[]"
        }
      ],
      "payable": false,
      "stateMutability": "view",
      "type": "function"
    },
    {
      "constant": true,
      "inputs": [
        {
          "name": "_tokenId",
          "type": "uint256"
        }
      ],
      "name": "getTokenLeases",
      "outputs": [
        {
          "name": "",
          "type": "address[]"
        }
      ],
      "payable": false,
      "stateMutability": "view",
      "type": "function"
    },
    {
      "constant": false,
      "inputs": [
        {
          "name": "_owner",
          "type": "address"
        }
      ],
      "name": "setOwner",
      "outputs": [],
      "payable": false,
      "stateMutability": "nonpayable",
      "type": "function"
    },
    {
      "constant": false,
      "inputs": [
        {
          "name": "_token",
          "type": "address"
        }
      ],
      "name": "setToken",
      "outputs": [],
      "payable": false,
      "stateMutability": "nonpayable",
      "type": "function"
    },
    {
      "constant": false,
      "inputs": [
        {
          "name": "_address",
          "type": "address"
        },
        {
          "name": "_motion",
          "type": "bool"
        }
      ],
      "name": "blacklistParty",
      "outputs": [],
      "payable": false,
      "stateMutability": "nonpayable",
      "type": "function"
    },
    {
      "constant": true,
      "inputs": [
        {
          "name": "_address",
          "type": "address"
        }
      ],
      "name": "isBlacklist",
      "outputs": [
        {
          "name": "",
          "type": "bool"
        }
      ],
      "payable": false,
      "stateMutability": "view",
      "type": "function"
    },
    {
      "constant": true,
      "inputs": [],
      "name": "getOrderCount",
      "outputs": [
        {
          "name": "",
          "type": "uint256"
        }
      ],
      "payable": false,
      "stateMutability": "view",
      "type": "function"
    },
    {
      "constant": true,
      "inputs": [],
      "name": "getLeaseCount",
      "outputs": [
        {
          "name": "",
          "type": "uint256"
        }
      ],
      "payable": false,
      "stateMutability": "view",
      "type": "function"
    },
    {
      "constant": false,
      "inputs": [
        {
          "name": "_fee",
          "type": "uint256"
        }
      ],
      "name": "setFee",
      "outputs": [],
      "payable": false,
      "stateMutability": "nonpayable",
      "type": "function"
    },
    {
      "constant": false,
      "inputs": [],
      "name": "withdraw",
      "outputs": [],
      "payable": false,
      "stateMutability": "nonpayable",
      "type": "function"
    },
    {
      "constant": true,
      "inputs": [
        {
          "name": "",
          "type": "address"
        },
        {
          "name": "",
          "type": "uint256"
        },
        {
          "name": "",
          "type": "bytes"
        }
      ],
      "name": "onERC721Received",
      "outputs": [
        {
          "name": "",
          "type": "bytes4"
        }
      ],
      "payable": false,
      "stateMutability": "view",
      "type": "function"
    }
  ],
  "bytecode": "0x608060405234801561001057600080fd5b5060018054600160a060020a033316600160a060020a03199091161781556004805480830190915560007f8a35acfbc15ff81a39ae7d344fd709f28e8600b4aa8c65c6b64bfe7fe36bd19b90910181905560098054928301815581527f6e1540171b6c0c960b71a7020d9f60077f6af931a8bbf590da0223dacf75c7af90910155611414806100a06000396000f3006080604052600436106101485763ffffffff7c010000000000000000000000000000000000000000000000000000000060003504166313af40358114610155578063144fa6d7146101765780632831f2f414610197578063303afd3f146101c1578063333e99db146101d95780633ccfd60b1461020e5780633d17ec25146102235780634a3ac43b1461023e578063535896dd146102495780635591dcc0146102645780635ac5ba71146102d557806369fe0e2d146102fb5780638927a106146103135780638d0a5fbb1461034e5780638da5cb5b14610363578063a85c38ef14610394578063b2bf5826146103ac578063d09ef241146103b7578063ddca3f43146103cf578063de52f2c3146103e4578063e7fa0af8146103f9578063eac8fd6114610411578063ebb3ebb314610429578063f0b9e5ba14610441578063f773e6eb146104a7575b341561015357600080fd5b005b34801561016157600080fd5b50610153600160a060020a03600435166104bf565b34801561018257600080fd5b50610153600160a060020a03600435166104fc565b3480156101a357600080fd5b506101af600435610539565b60408051918252519081900360200190f35b3480156101cd57600080fd5b506101af600435610558565b3480156101e557600080fd5b506101fa600160a060020a0360043516610566565b604080519115158252519081900360200190f35b34801561021a57600080fd5b50610153610584565b34801561022f57600080fd5b506101536004356024356105dd565b6101536004356107ba565b34801561025557600080fd5b50610153600435602435610940565b34801561027057600080fd5b50610285600160a060020a0360043516610b91565b60408051602080825283518183015283519192839290830191858101910280838360005b838110156102c15781810151838201526020016102a9565b505050509050019250505060405180910390f35b3480156102e157600080fd5b50610153600160a060020a03600435166024351515610bfd565b34801561030757600080fd5b50610153600435610c43565b34801561031f57600080fd5b5061032b600435610c63565b60408051600160a060020a03909316835260208301919091528051918290030190f35b34801561035a57600080fd5b506101af610c88565b34801561036f57600080fd5b50610378610c8f565b60408051600160a060020a039092168252519081900360200190f35b3480156103a057600080fd5b5061032b600435610c9e565b610153600435610cc3565b3480156103c357600080fd5b5061032b600435610df6565b3480156103db57600080fd5b506101af610e1a565b3480156103f057600080fd5b506101af610e20565b34801561040557600080fd5b50610153600435610e26565b34801561041d57600080fd5b50610153600435610f59565b34801561043557600080fd5b5061032b6004356110a7565b34801561044d57600080fd5b5061047260048035600160a060020a03169060248035916044359182019101356110cb565b604080517fffffffff000000000000000000000000000000000000000000000000000000009092168252519081900360200190f35b3480156104b357600080fd5b506102856004356110f4565b60015433600160a060020a039081169116146104da57600080fd5b60018054600160a060020a031916600160a060020a0392909216919091179055565b60015433600160a060020a0390811691161461051757600080fd5b60008054600160a060020a031916600160a060020a0392909216919091179055565b600480548290811061054757fe5b600091825260209091200154905081565b600980548290811061054757fe5b600160a060020a03166000908152600c602052604090205460ff1690565b60015433600160a060020a0390811691161461059f57600080fd5b600154604051600160a060020a039182169130163180156108fc02916000818181858888f193505050501580156105da573d6000803e3d6000fd5b50565b60008054604080517f6352211e000000000000000000000000000000000000000000000000000000008152600481018690529051600160a060020a0333811694931692636352211e92602480820193602093909283900390910190829087803b15801561064957600080fd5b505af115801561065d573d6000803e3d6000fd5b505050506040513d602081101561067357600080fd5b5051600160a060020a03161461068857600080fd5b6000828152600b602052604090205460ff16156106a457600080fd5b600160a060020a0333166000908152600c602052604090205460ff16156106ca57600080fd5b600081116106d757600080fd5b600980546000848152600a6020908152604080832084905560018085019095557f6e1540171b6c0c960b71a7020d9f60077f6af931a8bbf590da0223dacf75c7af90930186905582518084018452600160a060020a033381168083528284018881528986526006855294869020925183549216600160a060020a03199092169190911782559251940193909355815185815292830152818101839052517f387d3815e606c03e46196710baa9ab34ec49cbe3ab3131e10cbea1956be48fb59181900360600190a1506000908152600b60205260409020805460ff19166001179055565b6107c261138a565b50600081815260066020908152604080832081518083019092528054600160a060020a03168252600101549181018290529190341461080057600080fd5b600160a060020a0333166000908152600c602052604090205460ff161561082657600080fd5b508051600160a060020a0333811660008181526007602090815260408083208054600181810183559185528385200189905588845260088352908320805491820181558352918190209091018054600160a060020a03191690921790915560025490840151918316916108fc916108b9916103e8916108ad9190830363ffffffff61115f16565b9063ffffffff61119516565b6040518115909202916000818181858888f193505050501580156108e1573d6000803e3d6000fd5b5060208083015160408051600160a060020a0333811682528516938101939093528281018690526060830191909152517f681ddc67ea8796d2489979f5fc2ea2eb0f2d44ff3f11f061a191928a1f3d9a069181900360800190a1505050565b6000828152600b602052604090205460ff161561095c57600080fd5b60008054604080517f6352211e000000000000000000000000000000000000000000000000000000008152600481018690529051600160a060020a0333811694931692636352211e92602480820193602093909283900390910190829087803b1580156109c857600080fd5b505af11580156109dc573d6000803e3d6000fd5b505050506040513d60208110156109f257600080fd5b5051600160a060020a031614610a0757600080fd5b600160a060020a0333166000908152600c602052604090205460ff1615610a2d57600080fd5b60008111610a3a57600080fd5b60008054604080517f23b872dd000000000000000000000000000000000000000000000000000000008152600160a060020a033381166004830152308116602483015260448201879052915191909216926323b872dd926064808201939182900301818387803b158015610aad57600080fd5b505af1158015610ac1573d6000803e3d6000fd5b505060048054600086815260056020908152604080832084905560018085019095557f8a35acfbc15ff81a39ae7d344fd709f28e8600b4aa8c65c6b64bfe7fe36bd19b90930188905582518084018452600160a060020a033381168083528284018a81528b86526003855294869020925183549216600160a060020a03199092169190911782559251940193909355815187815292830152818101859052517f291c9d431146e4de667c04a6a738ed159e6dae2aaa909d85ca8ff7416719a6099350908190036060019150a15050565b600160a060020a038116600090815260076020908152604091829020805483518184028101840190945280845260609392830182828015610bf157602002820191906000526020600020905b815481526020019060010190808311610bdd575b50505050509050919050565b60015433600160a060020a03908116911614610c1857600080fd5b600160a060020a03919091166000908152600c60205260409020805460ff1916911515919091179055565b60015433600160a060020a03908116911614610c5e57600080fd5b600255565b60066020526000908152604090208054600190910154600160a060020a039091169082565b6004545b90565b600154600160a060020a031681565b60036020526000908152604090208054600190910154600160a060020a039091169082565b610ccb61138a565b50600081815260036020908152604080832081518083019092528054600160a060020a031682526001015491810182905291903414610d0957600080fd5b600160a060020a0333166000908152600c602052604090205460ff1615610d2f57600080fd5b50805160008054604080517f23b872dd000000000000000000000000000000000000000000000000000000008152600160a060020a033081166004830152338116602483015260448201889052915191909216926323b872dd926064808201939182900301818387803b158015610da557600080fd5b505af1158015610db9573d6000803e3d6000fd5b50505050610dc6836111ac565b80600160a060020a03166108fc6108b96103e86108ad6002546103e803876020015161115f90919063ffffffff16565b60009081526003602052604090208054600190910154600160a060020a0390911691565b60025481565b60095490565b6000818152600a602052604081205411610e3f57600080fd5b60008054604080517f6352211e000000000000000000000000000000000000000000000000000000008152600481018590529051600160a060020a0333811694931692636352211e92602480820193602093909283900390910190829087803b158015610eab57600080fd5b505af1158015610ebf573d6000803e3d6000fd5b505050506040513d6020811015610ed557600080fd5b5051600160a060020a03161480610efa575060015433600160a060020a039081169116145b1515610f0557600080fd5b610f0e81611292565b6040805182815290517fd2912b3df45595ef6333b74655a68f2c050cf839578cd5186cc41cd5242f7ab59181900360200190a16000908152600b60205260409020805460ff19169055565b610f6161138a565b60008281526005602052604081205411610f7a57600080fd5b5060008181526003602090815260409182902082518084019093528054600160a060020a0390811680855260019092015492840192909252339091161480610fd0575060015433600160a060020a039081169116145b1515610fdb57600080fd5b610fe4826111ac565b60008054604080517f23b872dd000000000000000000000000000000000000000000000000000000008152600160a060020a033081166004830152338116602483015260448201879052915191909216926323b872dd926064808201939182900301818387803b15801561105757600080fd5b505af115801561106b573d6000803e3d6000fd5b50506040805185815290517f2114a52d297f01ee99b38a96fbd79c650bf37e10c29e0967c6621187fbe253229350908190036020019150a15050565b60009081526006602052604090208054600190910154600160a060020a0390911691565b7ff0b9e5ba00000000000000000000000000000000000000000000000000000000949350505050565b600081815260086020908152604091829020805483518184028101840190945280845260609392830182828015610bf157602002820191906000526020600020905b8154600160a060020a031681526001909101906020018083116111365750505050509050919050565b600080831515611172576000915061118e565b5082820282848281151561118257fe5b041461118a57fe5b8091505b5092915050565b60008082848115156111a357fe5b04949350505050565b60008181526005602052604081205460045490919081906111d490600163ffffffff61137816565b91506004828154811015156111e557fe5b6000918252602080832091909101546040805180820182528481528084018581528986526003909452932092518354600160a060020a031916600160a060020a0390911617835590516001909201919091556004805491925082918590811061124a57fe5b6000918252602080832090910192909255828152600590915260409020839055600480549061127d9060001983016113a1565b50505060009182525060056020526040812055565b6000818152600a602052604081205460095490919081906112ba90600163ffffffff61137816565b91506009828154811015156112cb57fe5b6000918252602080832091909101546040805180820182528481528084018581528986526006909452932092518354600160a060020a031916600160a060020a0390911617835590516001909201919091556009805491925082918590811061133057fe5b6000918252602080832090910192909255828152600a9091526040902083905560098054906113639060001983016113a1565b505050600091825250600a6020526040812055565b60008282111561138457fe5b50900390565b604080518082019091526000808252602082015290565b8154818355818111156113c5576000838152602090206113c59181019083016113ca565b505050565b610c8c91905b808211156113e457600081556001016113d0565b50905600a165627a7a7230582007a2f6eff86c013e47738400b7b625b1ee581d24845dafece9a10fea0b5511ee0029",
  "source": "pragma solidity ^0.4.18;\n\n import \"./library/SafeMath.sol\";\n import \"./PhotoCore.sol\";\n import \"./library/ERC721Receiver.sol\";\nimport \"./library/AddressUtils.sol\";\n\n/**\n*@title PhotoMarket\n* The market contract which holds the orderbook for Photos to allow buying, selling, and liscenses\n*/\ncontract PhotoMarket{\n    using SafeMath for uint256;\n\n    /***VARIABLES***/\n    PhotoCore token; //The PhotoCore contract for linking to the Photocoin token\n    address public owner; //The owner of the market contract\n    uint public fee; //The percentage fee charged to each contract to 3 decimals (so 1000 is a 100% fee, 50 is a 5% fee, and 10 is a 1% fee)\n    \n    \n    /***DATA***/\n    //This is the base data structure for an order (the maker of the order and the price)\n    struct Order {\n        address maker;// the placer of the order\n        uint price;// The price in wei\n    }\n    // Equals to `bytes4(keccak256(\"onERC721Received(address,uint256,bytes)\"))`\n  // which can be also obtained as `ERC721Receiver(0).onERC721Received.selector`\n  bytes4 constant ERC721_RECEIVED = 0xf0b9e5ba;\n    //Maps a tokenId to a specific Order (owner/price)\n    mapping(uint256 => Order) public orders;\n    //An array of tokens for sale\n    uint[] public forSale;\n    //Index telling where a specific tokenId is in the forSale array\n    mapping(uint256 => uint256) forSaleIndex;\n    //Maps a tokenId to a specific Lease Order (owner/price)\n    mapping(uint256 => Order) public leases;\n    //Shows which tokens a party has bought rights for\n    mapping(address => uint[]) leasesOwned;\n    //Shows which parties have rights to a token\n    mapping(uint256 => address[]) tokenLeases;\n    //An array of tokens for lease\n    uint[] public forLease;\n    //Index telling where a specific tokenId is in the forLease array\n    mapping(uint256 => uint256) forLeaseIndex;\n    //Index telling if a tokenId is listed\n    mapping(uint256 => bool) forLeaseListed;\n    //A list of the blacklisted addresses\n    mapping(address => bool) blacklist;\n\n    /***MODIFIERS***/\n    /// @dev Access modifier for Owner functionality\n    modifier onlyOwner() {\n        require(msg.sender == owner);\n        _;\n    }\n\n\n    /***EVENTS***/\n    event OrderPlaced(uint256 _tokenId, address _seller,uint256 _price);\n    event Sale(address _buyer, address _seller, uint256 _tokenId, uint256 _price);\n    event OrderRemoved(uint256 _tokenId);\n    event LeaseOrderPlaced(uint256 _tokenId, address _seller,uint256 _price);\n    event Lease(address _buyer, address _seller, uint256 _tokenId, uint256 _price);\n    event LeaseOrderRemoved(uint256 _tokenId);\n\n    /***FUNCTIONS***/\n    /*\n    *@dev the constructor argument to set the owner and initialize the array.\n    */\n    function PhotoMarket() public{\n        owner = msg.sender;\n        forSale.push(0);\n        forLease.push(0);\n    }\n\n    /*\n    *@dev The fallback function to prevent money from being sent to the contract\n    */\n    function()  payable public{\n        require(msg.value == 0);\n    }\n\n    /*\n    *@dev listPhoto allows a party to place a photo on the orderbook\n    *@param _tokenId uint256 ID of photo\n    *@param _price uint256 price of photo in wei\n    */\n    function listPhoto(uint256 _tokenId, uint256 _price) external {\n        require(forLeaseListed[_tokenId] == false);\n        require(token.ownerOf(_tokenId) == msg.sender);\n        require(blacklist[msg.sender] == false);\n        require(_price > 0);\n        token.transferFrom(msg.sender,address(this),_tokenId);\n        forSaleIndex[_tokenId] = forSale.length;\n        forSale.push(_tokenId);\n        orders[_tokenId] = Order({\n            maker: msg.sender,\n            price: _price\n        });\n        OrderPlaced(_tokenId,msg.sender,_price);\n    }\n\n    /*\n    *@dev unlistPhoto allows a party to remove their order from the orderbook\n    *@param _tokenId uint256 ID of photo\n    */\n    function unlistPhoto(uint256 _tokenId) external{\n        require(forSaleIndex[_tokenId] > 0);\n        Order memory _order = orders[_tokenId];\n        require(msg.sender== _order.maker || msg.sender == owner);\n        unLister(_tokenId);\n        token.transferFrom(address(this),msg.sender,_tokenId);\n        OrderRemoved(_tokenId);\n    }\n\n    /*\n    *@dev buyPhoto allows a party to send Ether to buy a photo off of the orderbook\n    *@param _tokenId uint256 ID of photo\n    */\n    function buyPhoto(uint256 _tokenId) external payable {\n        Order memory _order = orders[_tokenId];\n        require(msg.value == _order.price);\n        require(blacklist[msg.sender] == false);\n        address maker = _order.maker;\n        token.transferFrom(address(this),msg.sender, _tokenId);\n        unLister(_tokenId);\n        maker.transfer(_order.price.mul(1000-fee).div(1000));\n        Sale(msg.sender,maker,_tokenId,_order.price);\n    }\n\n\n    /*\n    *@dev listLease allows a party to place a photo on the orderbook for lease\n    *@param _tokenId uint256 ID of photo\n    *@param _price uint256 price of leasing the photo in wei\n    */\n    function listLease(uint256 _tokenId, uint256 _price) external {\n        require(token.ownerOf(_tokenId) == msg.sender);\n        require(forLeaseListed[_tokenId] == false);\n        require(blacklist[msg.sender] == false);\n        require(_price > 0);\n        forLeaseIndex[_tokenId] = forLease.length;\n        forLease.push(_tokenId);\n        leases[_tokenId] = Order({\n            maker: msg.sender,\n            price: _price\n        });\n        LeaseOrderPlaced(_tokenId,msg.sender,_price);\n        forLeaseListed[_tokenId] = true;\n    }\n\n    /*\n    *@dev unlistLease allows a party to remove their order from the lease orderbook\n    *@param _tokenId uint256 ID of photo\n    */\n    function unlistLease(uint256 _tokenId) external{\n        require(forLeaseIndex[_tokenId] > 0);\n        require(token.ownerOf(_tokenId) == msg.sender || msg.sender == owner);\n        unLeaster(_tokenId);\n        LeaseOrderRemoved(_tokenId);\n        forLeaseListed[_tokenId] = false;\n    }\n\n    /*\n    *@dev buyLease allows a party to send Ether to buy a photo off of the lease orderbook\n    *@param _tokenId uint256 ID of photo\n    *@Note currently this does not unlist the product; as multiple parties can pay the fee to use the rights\n    *@Note there is only one kind of lease and a party can buy as many as they want\n    */\n    function buyLease(uint256 _tokenId) external payable {\n        Order memory _order = leases[_tokenId];\n        require(msg.value == _order.price);\n        require(blacklist[msg.sender] == false);\n        address maker = _order.maker;\n        leasesOwned[msg.sender].push(_tokenId);\n        tokenLeases[_tokenId].push(msg.sender);\n        maker.transfer(_order.price.mul(1000-fee).div(1000));\n        Sale(msg.sender,maker,_tokenId,_order.price);\n    }\n\n    /*\n    *@dev getOrder lists the price and maker of a specific token for a sale\n    *@param _tokenId uint256 ID of photo\n    *@return address of the party selling the rights to the photo\n    *@return uint of the price of the sale\n    */\n    function getOrder(uint256 _tokenId) external view returns(address,uint){\n        Order storage _order = orders[_tokenId];\n        return (_order.maker,_order.price);\n    }\n\n    /*\n    *@dev getLeases lists the price and maker of a specific token for a Lease\n    *@param _tokenId uint256 ID of photo\n    *@return address of the party leasing the rights to the photo\n    *@return uint of the price of the lease\n    */\n    function getLeases(uint256 _tokenId) external view returns(address,uint){\n        Order storage _order = leases[_tokenId];\n        return (_order.maker,_order.price);\n    }\n    /*\n    *@dev getLeasesbyOwner lists all tokens leased by an address\n    *@param _party is the address of the party  you are querying \n    *@return uint[] of tokenIds leased by party\n    *@Note - does not include tokens the party owns. \n    */\n    function getLeasebyOwner(address _party) external view returns(uint[]){\n        return leasesOwned[_party];\n    }\n\n    /*\n    *@dev getTokenLeases gives you all addresses that have leased a token\n    *@param _tokenId uint256 ID of photo\n    *@return address[] of all addresses that have leased a specific token\n    */\n    function getTokenLeases(uint256 _tokenId) external view returns(address[]){\n        return tokenLeases[_tokenId];\n    }\n\n\n    /*\n    *@dev allows the owner to change who the owner is\n    *@param _owner is the address of the new owner\n    */\n    function setOwner(address _owner) public onlyOwner() {\n        owner = _owner;\n    }\n\n    /*\n    *@dev allows the owner to set the address of the PhotoCoin token\n    *@param _token address of the PhotoCoin token (PhotoCore.sol)\n    */\n    function setToken(address _token) public onlyOwner() {\n        token = PhotoCore(_token);\n    }\n\n    /*\n    *@dev Allows the owner to blacklist addresses from using this exchange\n    *@param _address the address of the party to blacklist\n    *@param _motion true or false depending on if blacklisting or not\n    *@Note - This allows the owner to stop a malicious party from spamming the orderbook\n    */\n    function blacklistParty(address _address, bool _motion) public onlyOwner() {\n        blacklist[_address] = _motion;\n    }\n\n    /*\n    *@dev Allows parties to see if one is blacklisted\n    *@param _address the address of the party to blacklist\n    *@return bool, true for is blacklisted\n    */\n    function isBlacklist(address _address) public view returns(bool) {\n        return blacklist[_address];\n    }\n\n    /*\n    *@dev getOrderCount allows parties to query how many orders are on the book\n    *@return _uint of the number of orders in the orderbook\n    */\n    function getOrderCount() public constant returns(uint) {\n        return forSale.length;\n    }\n\n    /*\n    *@dev getLeaseCount allows parties to query how many leases are on the book\n    *@return _uint of the number of orders in the lease orderbook\n    */\n    function getLeaseCount() public constant returns(uint) {\n        return forLease.length;\n    }\n\n    /*\n    *@dev allows the owner to set the address of the fee for the marketplace contract\n    *@param _fee percentage fee charged to each contract to 3 decimals (so 1000 is a 100% fee, 50 is a 5% fee, and 10 is a 1% fee)\n    */\n    function setFee(uint _fee) public onlyOwner() {\n        fee = _fee;\n    }\n\n    /*\n    *@dev allows owner to withdraw funds\n    */\n    function withdraw() public onlyOwner(){\n        owner.transfer(this.balance);\n    }\n            /**\n       * @notice Handle the receipt of an NFT\n       * @dev The ERC721 smart contract calls this function on the recipient\n       *  after a `safetransfer`. This function MAY throw to revert and reject the\n       *  transfer. This function MUST use 50,000 gas or less. Return of other\n       *  than the magic value MUST result in the transaction being reverted.\n       *  Note: the contract address is always the message sender.\n       * _from The sending address\n       * _tokenId The NFT identifier which is being transfered\n       * _data Additional data with no specified format\n       * @return `bytes4(keccak256(\"onERC721Received(address,uint256,bytes)\"))`\n       */\n      function onERC721Received(address, uint256, bytes) external view returns(bytes4) {\n        return ERC721_RECEIVED;\n      }\n\n\n    /***INTERNAL FUNCTIONS***/\n    /*\n    *@dev An internal function to update mappings when an order is removed from the book\n    *@param _tokenId uint256 ID of photo\n    */\n    function unLister(uint256 _tokenId) internal{\n        uint256 tokenIndex = forSaleIndex[_tokenId];\n        uint256 lastTokenIndex = forSale.length.sub(1);\n        uint256 lastToken = forSale[lastTokenIndex];\n        orders[_tokenId] = Order({\n            maker: address(0),\n            price: 0\n        });\n        forSale[tokenIndex] = lastToken;\n        forSaleIndex[lastToken] = tokenIndex;\n        forSale.length--;\n        forSaleIndex[_tokenId] = 0;\n    }\n\n        /*\n    *@dev An internal function to update mappings when a lease is removed from the book\n    *@param _tokenId uint256 ID of photo\n    */\n    function unLeaster(uint256 _tokenId) internal{\n        uint256 tokenIndex = forLeaseIndex[_tokenId];\n        uint256 lastTokenIndex = forLease.length.sub(1);\n        uint256 lastToken = forLease[lastTokenIndex];\n        leases[_tokenId] = Order({\n            maker: address(0),\n            price: 0\n        });\n        forLease[tokenIndex] = lastToken;\n        forLeaseIndex[lastToken] = tokenIndex;\n        forLease.length--;\n        forLeaseIndex[_tokenId] = 0;\n    }\n}",
  "sourcePath": "/Volumes/WORKSPACE/Development/Pavle/Photocoin/contracts/PhotoMarket.sol",
  "compiler": {
    "name": "solc",
    "version": "0.4.23+commit.124ca40d.Emscripten.clang"
  },
  "schemaVersion": "2.0.0",
  "updatedAt": "2018-04-24T07:53:05.337Z"
}