{
  "contractName": "PhotoBase",
  "abi": [
    {
      "constant": true,
      "inputs": [
        {
          "name": "interfaceID",
          "type": "bytes4"
        }
      ],
      "name": "supportsInterface",
      "outputs": [
        {
          "name": "",
          "type": "bool"
        }
      ],
      "payable": false,
      "stateMutability": "view",
      "type": "function"
    },
    {
      "constant": false,
      "inputs": [
        {
          "name": "_to",
          "type": "address"
        },
        {
          "name": "_tokenId",
          "type": "uint256"
        }
      ],
      "name": "approve",
      "outputs": [],
      "payable": false,
      "stateMutability": "nonpayable",
      "type": "function"
    },
    {
      "constant": true,
      "inputs": [],
      "name": "auctionContract",
      "outputs": [
        {
          "name": "",
          "type": "address"
        }
      ],
      "payable": false,
      "stateMutability": "view",
      "type": "function"
    },
    {
      "constant": true,
      "inputs": [],
      "name": "totalSupply",
      "outputs": [
        {
          "name": "",
          "type": "uint256"
        }
      ],
      "payable": false,
      "stateMutability": "view",
      "type": "function"
    },
    {
      "constant": true,
      "inputs": [
        {
          "name": "_tokenId",
          "type": "uint256"
        }
      ],
      "name": "approvedFor",
      "outputs": [
        {
          "name": "",
          "type": "address"
        }
      ],
      "payable": false,
      "stateMutability": "view",
      "type": "function"
    },
    {
      "constant": false,
      "inputs": [
        {
          "name": "_from",
          "type": "address"
        },
        {
          "name": "_to",
          "type": "address"
        },
        {
          "name": "_tokenId",
          "type": "uint256"
        }
      ],
      "name": "safeTransferFrom",
      "outputs": [],
      "payable": false,
      "stateMutability": "nonpayable",
      "type": "function"
    },
    {
      "constant": true,
      "inputs": [],
      "name": "whitelistOn",
      "outputs": [
        {
          "name": "",
          "type": "bool"
        }
      ],
      "payable": false,
      "stateMutability": "view",
      "type": "function"
    },
    {
      "constant": true,
      "inputs": [
        {
          "name": "_owner",
          "type": "address"
        }
      ],
      "name": "tokensOf",
      "outputs": [
        {
          "name": "",
          "type": "uint256[]"
        }
      ],
      "payable": false,
      "stateMutability": "view",
      "type": "function"
    },
    {
      "constant": true,
      "inputs": [
        {
          "name": "_tokenId",
          "type": "uint256"
        }
      ],
      "name": "ownerOf",
      "outputs": [
        {
          "name": "",
          "type": "address"
        }
      ],
      "payable": false,
      "stateMutability": "view",
      "type": "function"
    },
    {
      "constant": true,
      "inputs": [
        {
          "name": "_owner",
          "type": "address"
        }
      ],
      "name": "balanceOf",
      "outputs": [
        {
          "name": "",
          "type": "uint256"
        }
      ],
      "payable": false,
      "stateMutability": "view",
      "type": "function"
    },
    {
      "constant": true,
      "inputs": [],
      "name": "totalTokens",
      "outputs": [
        {
          "name": "",
          "type": "uint256"
        }
      ],
      "payable": false,
      "stateMutability": "view",
      "type": "function"
    },
    {
      "constant": true,
      "inputs": [],
      "name": "allowUploads",
      "outputs": [
        {
          "name": "",
          "type": "bool"
        }
      ],
      "payable": false,
      "stateMutability": "view",
      "type": "function"
    },
    {
      "constant": true,
      "inputs": [],
      "name": "owner",
      "outputs": [
        {
          "name": "",
          "type": "address"
        }
      ],
      "payable": false,
      "stateMutability": "view",
      "type": "function"
    },
    {
      "constant": true,
      "inputs": [],
      "name": "marketContract",
      "outputs": [
        {
          "name": "",
          "type": "address"
        }
      ],
      "payable": false,
      "stateMutability": "view",
      "type": "function"
    },
    {
      "constant": false,
      "inputs": [
        {
          "name": "_operator",
          "type": "address"
        },
        {
          "name": "_approved",
          "type": "bool"
        }
      ],
      "name": "setApprovalForAll",
      "outputs": [],
      "payable": false,
      "stateMutability": "nonpayable",
      "type": "function"
    },
    {
      "constant": true,
      "inputs": [
        {
          "name": "_operator",
          "type": "address"
        },
        {
          "name": "_owner",
          "type": "address"
        }
      ],
      "name": "isApproved",
      "outputs": [
        {
          "name": "",
          "type": "bool"
        }
      ],
      "payable": false,
      "stateMutability": "view",
      "type": "function"
    },
    {
      "constant": false,
      "inputs": [
        {
          "name": "_from",
          "type": "address"
        },
        {
          "name": "_to",
          "type": "address"
        },
        {
          "name": "_tokenId",
          "type": "uint256"
        },
        {
          "name": "_data",
          "type": "bytes"
        }
      ],
      "name": "safeTransferFrom",
      "outputs": [],
      "payable": false,
      "stateMutability": "nonpayable",
      "type": "function"
    },
    {
      "constant": true,
      "inputs": [
        {
          "name": "_operator",
          "type": "address"
        },
        {
          "name": "_owner",
          "type": "address"
        },
        {
          "name": "_tokenId",
          "type": "uint256"
        }
      ],
      "name": "isApproved",
      "outputs": [
        {
          "name": "",
          "type": "bool"
        }
      ],
      "payable": false,
      "stateMutability": "view",
      "type": "function"
    },
    {
      "constant": true,
      "inputs": [
        {
          "name": "",
          "type": "address"
        },
        {
          "name": "",
          "type": "uint256"
        },
        {
          "name": "",
          "type": "bytes"
        }
      ],
      "name": "onERC721Received",
      "outputs": [
        {
          "name": "",
          "type": "bytes4"
        }
      ],
      "payable": false,
      "stateMutability": "view",
      "type": "function"
    },
    {
      "anonymous": false,
      "inputs": [
        {
          "indexed": true,
          "name": "_owner",
          "type": "address"
        },
        {
          "indexed": false,
          "name": "_photoId",
          "type": "uint256"
        },
        {
          "indexed": false,
          "name": "_photoHash",
          "type": "bytes32"
        },
        {
          "indexed": false,
          "name": "_name",
          "type": "string"
        },
        {
          "indexed": false,
          "name": "_photographer",
          "type": "string"
        },
        {
          "indexed": false,
          "name": "_isenNumber",
          "type": "uint256"
        }
      ],
      "name": "Upload",
      "type": "event"
    },
    {
      "anonymous": false,
      "inputs": [
        {
          "indexed": true,
          "name": "_from",
          "type": "address"
        },
        {
          "indexed": true,
          "name": "_to",
          "type": "address"
        },
        {
          "indexed": false,
          "name": "_tokenId",
          "type": "uint256"
        }
      ],
      "name": "Transfer",
      "type": "event"
    },
    {
      "anonymous": false,
      "inputs": [
        {
          "indexed": true,
          "name": "_owner",
          "type": "address"
        },
        {
          "indexed": true,
          "name": "_operator",
          "type": "address"
        },
        {
          "indexed": false,
          "name": "_approved",
          "type": "bool"
        }
      ],
      "name": "ApprovalForAll",
      "type": "event"
    },
    {
      "anonymous": false,
      "inputs": [
        {
          "indexed": true,
          "name": "_owner",
          "type": "address"
        },
        {
          "indexed": true,
          "name": "_operator",
          "type": "address"
        },
        {
          "indexed": false,
          "name": "_tokenId",
          "type": "uint256"
        }
      ],
      "name": "Approval",
      "type": "event"
    },
    {
      "constant": false,
      "inputs": [
        {
          "name": "_owner",
          "type": "address"
        }
      ],
      "name": "setOwner",
      "outputs": [],
      "payable": false,
      "stateMutability": "nonpayable",
      "type": "function"
    },
    {
      "constant": false,
      "inputs": [
        {
          "name": "_market",
          "type": "address"
        }
      ],
      "name": "setMarket",
      "outputs": [],
      "payable": false,
      "stateMutability": "nonpayable",
      "type": "function"
    },
    {
      "constant": false,
      "inputs": [
        {
          "name": "_auction",
          "type": "address"
        }
      ],
      "name": "setAuction",
      "outputs": [],
      "payable": false,
      "stateMutability": "nonpayable",
      "type": "function"
    },
    {
      "constant": false,
      "inputs": [
        {
          "name": "_user",
          "type": "address"
        },
        {
          "name": "_trueorfalse",
          "type": "bool"
        }
      ],
      "name": "setWhitelist",
      "outputs": [],
      "payable": false,
      "stateMutability": "nonpayable",
      "type": "function"
    },
    {
      "constant": true,
      "inputs": [
        {
          "name": "_user",
          "type": "address"
        }
      ],
      "name": "isWhitelist",
      "outputs": [
        {
          "name": "",
          "type": "bool"
        }
      ],
      "payable": false,
      "stateMutability": "view",
      "type": "function"
    },
    {
      "constant": false,
      "inputs": [],
      "name": "toggleWhitelist",
      "outputs": [
        {
          "name": "",
          "type": "bool"
        }
      ],
      "payable": false,
      "stateMutability": "nonpayable",
      "type": "function"
    },
    {
      "constant": true,
      "inputs": [
        {
          "name": "_tokenId",
          "type": "uint256"
        }
      ],
      "name": "getPhoto",
      "outputs": [
        {
          "name": "",
          "type": "string"
        },
        {
          "name": "",
          "type": "string"
        },
        {
          "name": "",
          "type": "uint256"
        },
        {
          "name": "",
          "type": "uint64"
        }
      ],
      "payable": false,
      "stateMutability": "view",
      "type": "function"
    },
    {
      "constant": false,
      "inputs": [
        {
          "name": "_from",
          "type": "address"
        },
        {
          "name": "_to",
          "type": "address"
        },
        {
          "name": "_tokenId",
          "type": "uint256"
        }
      ],
      "name": "transferFrom",
      "outputs": [],
      "payable": false,
      "stateMutability": "nonpayable",
      "type": "function"
    },
    {
      "constant": false,
      "inputs": [
        {
          "name": "_from",
          "type": "address"
        },
        {
          "name": "_to",
          "type": "address"
        },
        {
          "name": "_tokenId",
          "type": "uint256"
        },
        {
          "name": "_data",
          "type": "bytes"
        }
      ],
      "name": "transferFrom",
      "outputs": [],
      "payable": false,
      "stateMutability": "nonpayable",
      "type": "function"
    }
  ],
  "bytecode": "0x608060405261001564010000000061001a810204565b6101e7565b604080517f6973417070726f76656428616464726573732c616464726573732c75696e743281527f353629000000000000000000000000000000000000000000000000000000000060208083019190915282519182900360230182207f6973417070726f76656428616464726573732c616464726573732900000000008352835192839003601b0183207f7472616e7366657246726f6d28616464726573732c616464726573732c75696e8085527f743235362c62797465732900000000000000000000000000000000000000000085850152855194859003602b0185209085527f7432353629000000000000000000000000000000000000000000000000000000858501528551948590036025019094207fffffffff000000000000000000000000000000000000000000000000000000007fa1697483000000000000000000000000000000000000000000000000000000009190951890911890911818919091166000908152600191829052918220805460ff1990811683179091557f01ffc9a7000000000000000000000000000000000000000000000000000000009092527fb45820386466a8e01597d6e1efaf8f11ba4467972de5ca6c1f8aa3544ac2888e8054909216179055565b6114b1806101f66000396000f3006080604052600436106101695763ffffffff7c010000000000000000000000000000000000000000000000000000000060003504166301ffc9a7811461016e578063095ea7b3146101a45780630ab8afac146101ca57806313af4035146101fb57806318160ddd1461021c57806323b872dd146102435780632a6dd48f1461026d57806342842e0e146102855780634917aa3f146102af57806353d6fd59146102c45780635a3f2672146102ea5780636352211e1461035b5780636dcea85f1461037357806370a08231146103945780637e15144b146103b55780637e1c0c09146103ca578063821ed3a6146103df5780638da5cb5b146103f4578063a1794bcd14610409578063a22cb4651461041e578063a389783e14610444578063ab67aa581461046b578063b6be128a146104da578063b88d4fde146105e6578063b8c6f57914610655578063c683630d14610676578063e5af48d814610697578063f0b9e5ba146106c1575b600080fd5b34801561017a57600080fd5b50610190600160e060020a031960043516610747565b604080519115158252519081900360200190f35b3480156101b057600080fd5b506101c8600160a060020a0360043516602435610766565b005b3480156101d657600080fd5b506101df610818565b60408051600160a060020a039092168252519081900360200190f35b34801561020757600080fd5b506101c8600160a060020a0360043516610827565b34801561022857600080fd5b50610231610864565b60408051918252519081900360200190f35b34801561024f57600080fd5b506101c8600160a060020a036004358116906024351660443561086b565b34801561027957600080fd5b506101df600435610993565b34801561029157600080fd5b506101c8600160a060020a03600435811690602435166044356109ae565b3480156102bb57600080fd5b506101906109ca565b3480156102d057600080fd5b506101c8600160a060020a036004351660243515156109d3565b3480156102f657600080fd5b5061030b600160a060020a0360043516610a19565b60408051602080825283518183015283519192839290830191858101910280838360005b8381101561034757818101518382015260200161032f565b505050509050019250505060405180910390f35b34801561036757600080fd5b506101df600435610a85565b34801561037f57600080fd5b506101c8600160a060020a0360043516610aa0565b3480156103a057600080fd5b50610231600160a060020a0360043516610add565b3480156103c157600080fd5b50610190610af8565b3480156103d657600080fd5b50610231610b2f565b3480156103eb57600080fd5b50610190610b35565b34801561040057600080fd5b506101df610b56565b34801561041557600080fd5b506101df610b65565b34801561042a57600080fd5b506101c8600160a060020a03600435166024351515610b74565b34801561045057600080fd5b50610190600160a060020a0360043581169060243516610c1f565b34801561047757600080fd5b50604080516020601f6064356004818101359283018490048402850184019095528184526101c894600160a060020a038135811695602480359092169560443595369560849401918190840183828082843750949750610c419650505050505050565b3480156104e657600080fd5b506104f2600435610cc3565b6040805190810183905267ffffffffffffffff8216606082015260808082528551908201528451819060208083019160a084019189019080838360005b8381101561054757818101518382015260200161052f565b50505050905090810190601f1680156105745780820380516001836020036101000a031916815260200191505b50838103825286518152865160209182019188019080838360005b838110156105a757818101518382015260200161058f565b50505050905090810190601f1680156105d45780820380516001836020036101000a031916815260200191505b50965050505050505060405180910390f35b3480156105f257600080fd5b50604080516020601f6064356004818101359283018490048402850184019095528184526101c894600160a060020a038135811695602480359092169560443595369560849401918190840183828082843750949750610e679650505050505050565b34801561066157600080fd5b506101c8600160a060020a0360043516610e89565b34801561068257600080fd5b50610190600160a060020a0360043516610ec6565b3480156106a357600080fd5b50610190600160a060020a0360043581169060243516604435610ee4565b3480156106cd57600080fd5b50604080516020600460443581810135601f810184900484028501840190955284845261072a948235600160a060020a0316946024803595369594606494920191908190840183828082843750949750610f529650505050505050565b60408051600160e060020a03199092168252519081900360200190f35b600160e060020a03191660009081526001602052604090205460ff1690565b8033600160a060020a031661077a82610a85565b600160a060020a03161461078d57600080fd5b33600160a060020a031683600160a060020a0316141515156107ae57600080fd5b6000828152600360209081526040918290208054600160a060020a031916600160a060020a0387811691821790925583518681529351909333909216927f8c5be1e5ebec7d5bd14f71427d1e84f3dd0314c0f7b2291e5b200ac8c7c3b925928290030190a3505050565b600954600160a060020a031681565b60075433600160a060020a0390811691161461084257600080fd5b60078054600160a060020a031916600160a060020a0392909216919091179055565b6000545b90565b600160a060020a03831615801561089c575060095474010000000000000000000000000000000000000000900460ff165b806108c7575060075433600160a060020a0390811691161480156108c75750600160a060020a038316155b806108d757506108d73384610c1f565b806108e857506108e8338483610ee4565b8061090c575033600160a060020a031661090182610a85565b600160a060020a0316145b80610925575060085433600160a060020a039081169116145b8061093e575060095433600160a060020a039081169116145b151561094957600080fd5b600c5460ff1615806109785750600160a060020a0382166000908152600b602052604090205460ff1615156001145b151561098357600080fd5b61098e838383610f7a565b505050565b600090815260036020526040902054600160a060020a031690565b61098e8383836020604051908101604052806000815250610e67565b600c5460ff1681565b60075433600160a060020a039081169116146109ee57600080fd5b600160a060020a03919091166000908152600b60205260409020805460ff1916911515919091179055565b600160a060020a038116600090815260046020908152604091829020805483518184028101840190945280845260609392830182828015610a7957602002820191906000526020600020905b815481526020019060010190808311610a65575b50505050509050919050565b600090815260026020526040902054600160a060020a031690565b60075433600160a060020a03908116911614610abb57600080fd5b60088054600160a060020a031916600160a060020a0392909216919091179055565b600160a060020a031660009081526004602052604090205490565b60075460009033600160a060020a03908116911614610b1657600080fd5b50600c805460ff19811660ff9182161517918290551690565b60005481565b60095474010000000000000000000000000000000000000000900460ff1681565b600754600160a060020a031681565b600854600160a060020a031681565b8015610bae5733600160a060020a0390811660009081526006602052604090208054600160a060020a031916918416919091179055610bd5565b600160a060020a03331660009081526006602052604090208054600160a060020a03191690555b6040805182151581529051600160a060020a038085169233909116917f17307eab39ab6107e8899845ad3d59bd9653f200f220920489ca2b5937696c319181900360200190a35050565b600160a060020a03908116600090815260066020526040902054811691161490565b33600160a060020a0316610c5483610993565b600160a060020a03161480610c6e5750610c6e3385610c1f565b80610c92575033600160a060020a0316610c8783610a85565b600160a060020a0316145b1515610c9d57600080fd5b600160a060020a0383161515610cb257600080fd5b610cbd848484610f7a565b50505050565b606080600080610cd161141a565b6000868152600a60209081526040918290208251815460026001821615610100026000190190911604601f8101849004909302810160c090810190945260a08101838152909391928492849190840182828015610d6f5780601f10610d4457610100808354040283529160200191610d6f565b820191906000526020600020905b815481529060010190602001808311610d5257829003601f168201915b50505050508152602001600182018054600181600116156101000203166002900480601f016020809104026020016040519081016040528092919081815260200182805460018160011615610100020316600290048015610e115780601f10610de657610100808354040283529160200191610e11565b820191906000526020600020905b815481529060010190602001808311610df457829003601f168201915b505050918352505060028201546020808301919091526003830154604083015260049092015467ffffffffffffffff16606091820152825191830151908301516080909301519199909850919650945092505050565b610e7284848461086b565b610e7e84848484611065565b1515610cbd57600080fd5b60075433600160a060020a03908116911614610ea457600080fd5b60098054600160a060020a031916600160a060020a0392909216919091179055565b600160a060020a03166000908152600b602052604090205460ff1690565b600081815260036020526040812054600160a060020a038581169116148015610f4a5750600160a060020a03831660009081526004602090815260408083208584526005909252909120548154849291908110610f3d57fe5b9060005260206000200154145b949350505050565b7ff0b9e5ba000000000000000000000000000000000000000000000000000000009392505050565b600160a060020a0382161515610f8f57600080fd5b610f9881610a85565b600160a060020a0383811691161415610fb057600080fd5b82600160a060020a0316610fc382610a85565b600160a060020a031614610fd657600080fd5b60008181526003602052604090208054600160a060020a0319169055600160a060020a0383161561100b5761100b83826111d6565b6110158282611340565b81600160a060020a031683600160a060020a03167fddf252ad1be2c89b69c2b068fc378daa952ba7f163c4a11628f55a4df523b3ef836040518082815260200191505060405180910390a3505050565b60008061107a85600160a060020a03166113ea565b151561108957600191506111cd565b84600160a060020a031663f0b9e5ba8786866040518463ffffffff167c01000000000000000000000000000000000000000000000000000000000281526004018084600160a060020a0316600160a060020a0316815260200183815260200180602001828103825283818151815260200191508051906020019080838360005b83811015611121578181015183820152602001611109565b50505050905090810190601f16801561114e5780820380516001836020036101000a031916815260200191505b50945050505050602060405180830381600087803b15801561116f57600080fd5b505af1158015611183573d6000803e3d6000fd5b505050506040513d602081101561119957600080fd5b5051600160e060020a031981167ff0b9e5ba0000000000000000000000000000000000000000000000000000000014925090505b50949350505050565b600080600084600160a060020a03166111ee85610a85565b600160a060020a03161461120157600080fd5b600084815260056020526040902054925061122c600161122087610add565b9063ffffffff6113f216565b600160a060020a03861660009081526004602052604090208054919350908390811061125457fe5b60009182526020808320909101548683526002825260408084208054600160a060020a0319169055600160a060020a03891684526004909252912080549192508291859081106112a057fe5b6000918252602080832090910192909255600160a060020a03871681526004909152604081208054849081106112d257fe5b6000918252602080832090910192909255600160a060020a0387168152600490915260409020805490611309906000198301611448565b5060008481526005602052604080822082905582825281208490555461133690600163ffffffff6113f216565b6000555050505050565b600081815260026020526040812054600160a060020a03161561136257600080fd5b60008281526002602052604090208054600160a060020a031916600160a060020a03851617905561139283610add565b600160a060020a0384166000908152600460209081526040808320805460018181018355918552838520018790558684526005909252822083905590549192506113e2919063ffffffff61140416565b600055505050565b6000903b1190565b6000828211156113fe57fe5b50900390565b60008282018381101561141357fe5b9392505050565b6040805160a08101825260608082526020820181905260009282018390528101829052608081019190915290565b81548183558181111561098e5760008381526020902061098e91810190830161086891905b80821115611481576000815560010161146d565b50905600a165627a7a72305820799f45dee3fb0a7d56c4ecb4555a18133aee8e087b1e7363299215bcf1a613b10029",
  "source": "pragma solidity ^0.4.18;\n\nimport \"./ERC721.sol\";\n\n/**\n*@title PhotoBase\n* Base contract for Photocoin. Holds all common structs, events and base variables.\n*/\ncontract PhotoBase is ERC721{\n    /***VARIABLES***/\n    address public owner; //The owner of the contract\n    address public marketContract; //The addresss of the official marketplace contract\n    address public auctionContract; //The addresss of the official auction contract\n    bool public allowUploads;\n\n    /*** DATA TYPES ***/\n    /// @dev The main Photo struct\n    struct Photo {\n        string name;//Name of photograph\n        string photographer;//Name of photographer\n        bytes32 photoHash; //Hash of photo\n        uint256 isenNumber;// The unique ISEN number\n        uint64 uploadTime;// The timestamp from the block when this came into existence\n    }\n    /*** STORAGE ***/\n    mapping(uint256 => Photo) photos;//A mapping from photoId to the details of the photo\n    mapping(address => bool) whitelist;// A list of addresses approved to trade\n    bool public whitelistOn;\n\n    /***MODIFIERS***/\n    /// @dev Access modifier for Owner functionality\n    modifier onlyOwner() {\n        require(msg.sender == owner);\n        _;\n    }\n\n    /*** EVENTS ***/\n    /// @dev The Upload event is fired whenever a new photo is uploaded\n    event Upload(address indexed _owner, uint256 _photoId,bytes32 _photoHash, string _name, string _photographer, uint _isenNumber);\n\n\n    /***FUNCTIONS***/\n    /**\n    *@dev allows the owner to set the owner of the contract\n    *@param _owner is the address of the new owner\n    */\n    function setOwner(address _owner) public onlyOwner() {\n        owner = _owner;\n    }\n\n    /**\n    *@dev allows the owner to set the official marketplace of the token\n    *@param _market is the address of the PhotoMarket contract\n    */\n    function setMarket(address _market) public onlyOwner() {\n        marketContract = _market;\n    }\n    /**\n    *@dev allows the owner to set the official auction of the token\n    *@param _market is the address of the PhotoMarket contract\n    */\n    function setAuction(address _auction) public onlyOwner() {\n        auctionContract = _auction;\n    }\n\n    /**\n    *@dev allows the owner to manage the whitelist\n    *@param _user is the user to allow to trade\n    */\n    function setWhitelist(address _user, bool _trueorfalse) public onlyOwner() {\n        whitelist[_user] = _trueorfalse;\n    }\n\n\n    /**\n    *@dev allows users to query whether an address is whitelisted\n    *@param _user is the user to allow to trade\n    *@return bool is whether a user is allowed to trade\n    */\n    function isWhitelist(address _user) public view returns(bool){\n        return whitelist[_user];\n    }\n\n        /**\n    *@dev allows users to query whether parties need to be whitelisted\n    */\n    function toggleWhitelist() public onlyOwner() returns(bool){\n        whitelistOn = !whitelistOn;\n        return whitelistOn;\n    }\n\n    /**\n    *@dev allows for the details of the photo to be viewed\n    *@param _tokenId is the address of the new owner\n    *@return string  name\n    *@return string photographer\n    *@return uint256 isenNumber\n    *@return uint64 uploadTime\n    */\n    function getPhoto(uint _tokenId) public view returns(string,string,uint256, uint64){\n        Photo memory _photo = photos[_tokenId];\n        return (_photo.name,_photo.photographer,_photo.isenNumber,_photo.uploadTime);\n    }\n\n  /**\n   * @dev This overwrites the transferFrom function to allow the market/auction contract to interact\n   * @param _from is the address that the token will be sent from\n   * @param _to is the address we are sending the token to\n   * @param _tokenId the numeric identifier of a token\n  */\n  function transferFrom(address _from, address _to, uint256 _tokenId)  public{\n    require((_from == address(0) && allowUploads) ||\n        (msg.sender == owner && _from == address(0)) ||\n         isApproved(msg.sender,_from) ||\n          isApproved(msg.sender,_from,_tokenId) ||\n           ownerOf(_tokenId)==msg.sender ||\n            msg.sender==marketContract ||\n             msg.sender==auctionContract);\n    require(!whitelistOn || whitelist[_to] == true);\n    clearApprovalAndTransfer(_from,_to,_tokenId);\n  }\n}\n",
  "sourcePath": "/Volumes/WORKSPACE/Development/Pavle/Photocoin/contracts/PhotoBase.sol",
  "compiler": {
    "name": "solc",
    "version": "0.4.23+commit.124ca40d.Emscripten.clang"
  },
  "schemaVersion": "2.0.0",
  "updatedAt": "2018-04-24T07:52:50.199Z"
}